{
  "contractName": "DataStore",
  "abi": [
    {
      "constant": true,
      "inputs": [
        {
          "name": "",
          "type": "address"
        }
      ],
      "name": "hasAccess",
      "outputs": [
        {
          "name": "",
          "type": "bool"
        }
      ],
      "payable": false,
      "stateMutability": "view",
      "type": "function"
    },
    {
      "constant": false,
      "inputs": [
        {
          "name": "addr",
          "type": "address"
        }
      ],
      "name": "disallow",
      "outputs": [],
      "payable": false,
      "stateMutability": "nonpayable",
      "type": "function"
    },
    {
      "constant": false,
      "inputs": [
        {
          "name": "addr",
          "type": "address"
        }
      ],
      "name": "allow",
      "outputs": [],
      "payable": false,
      "stateMutability": "nonpayable",
      "type": "function"
    },
    {
      "anonymous": false,
      "inputs": [
        {
          "indexed": false,
          "name": "addr",
          "type": "address"
        }
      ],
      "name": "WhitelistedAddressAdded",
      "type": "event"
    },
    {
      "anonymous": false,
      "inputs": [
        {
          "indexed": false,
          "name": "addr",
          "type": "address"
        }
      ],
      "name": "WhitelistedAddressRemoved",
      "type": "event"
    },
    {
      "constant": false,
      "inputs": [
        {
          "name": "id",
          "type": "uint256"
        },
        {
          "name": "owner",
          "type": "address"
        },
        {
          "name": "goal",
          "type": "uint256"
        },
        {
          "name": "date",
          "type": "uint256"
        }
      ],
      "name": "insertPending",
      "outputs": [],
      "payable": false,
      "stateMutability": "nonpayable",
      "type": "function"
    },
    {
      "constant": false,
      "inputs": [
        {
          "name": "id",
          "type": "uint256"
        },
        {
          "name": "owner",
          "type": "address"
        },
        {
          "name": "goal",
          "type": "uint256"
        },
        {
          "name": "date",
          "type": "uint256"
        }
      ],
      "name": "insertApproved",
      "outputs": [],
      "payable": false,
      "stateMutability": "nonpayable",
      "type": "function"
    },
    {
      "constant": false,
      "inputs": [
        {
          "name": "id",
          "type": "uint256"
        }
      ],
      "name": "removePending",
      "outputs": [],
      "payable": false,
      "stateMutability": "nonpayable",
      "type": "function"
    },
    {
      "constant": false,
      "inputs": [
        {
          "name": "id",
          "type": "uint256"
        }
      ],
      "name": "removeApproved",
      "outputs": [],
      "payable": false,
      "stateMutability": "nonpayable",
      "type": "function"
    },
    {
      "constant": false,
      "inputs": [
        {
          "name": "id",
          "type": "uint256"
        }
      ],
      "name": "approve",
      "outputs": [],
      "payable": false,
      "stateMutability": "nonpayable",
      "type": "function"
    },
    {
      "constant": false,
      "inputs": [
        {
          "name": "id",
          "type": "uint256"
        },
        {
          "name": "who",
          "type": "address"
        },
        {
          "name": "amount",
          "type": "uint256"
        }
      ],
      "name": "pay",
      "outputs": [],
      "payable": false,
      "stateMutability": "nonpayable",
      "type": "function"
    },
    {
      "constant": true,
      "inputs": [
        {
          "name": "id",
          "type": "uint256"
        }
      ],
      "name": "get",
      "outputs": [
        {
          "name": "",
          "type": "uint256"
        },
        {
          "name": "",
          "type": "address"
        },
        {
          "name": "",
          "type": "uint256"
        },
        {
          "name": "",
          "type": "uint256"
        },
        {
          "name": "",
          "type": "uint256"
        },
        {
          "name": "",
          "type": "uint256"
        },
        {
          "name": "",
          "type": "uint256"
        },
        {
          "name": "",
          "type": "uint256"
        }
      ],
      "payable": false,
      "stateMutability": "view",
      "type": "function"
    },
    {
      "constant": true,
      "inputs": [
        {
          "name": "pending",
          "type": "bool"
        }
      ],
      "name": "first",
      "outputs": [
        {
          "name": "",
          "type": "uint256"
        },
        {
          "name": "",
          "type": "address"
        },
        {
          "name": "",
          "type": "uint256"
        },
        {
          "name": "",
          "type": "uint256"
        },
        {
          "name": "",
          "type": "uint256"
        },
        {
          "name": "",
          "type": "uint256"
        },
        {
          "name": "",
          "type": "uint256"
        },
        {
          "name": "",
          "type": "uint256"
        }
      ],
      "payable": false,
      "stateMutability": "view",
      "type": "function"
    },
    {
      "constant": true,
      "inputs": [
        {
          "name": "pending",
          "type": "bool"
        }
      ],
      "name": "last",
      "outputs": [
        {
          "name": "",
          "type": "uint256"
        },
        {
          "name": "",
          "type": "address"
        },
        {
          "name": "",
          "type": "uint256"
        },
        {
          "name": "",
          "type": "uint256"
        },
        {
          "name": "",
          "type": "uint256"
        },
        {
          "name": "",
          "type": "uint256"
        },
        {
          "name": "",
          "type": "uint256"
        },
        {
          "name": "",
          "type": "uint256"
        }
      ],
      "payable": false,
      "stateMutability": "view",
      "type": "function"
    },
    {
      "constant": true,
      "inputs": [
        {
          "name": "id",
          "type": "uint256"
        },
        {
          "name": "user",
          "type": "address"
        }
      ],
      "name": "balanceOf",
      "outputs": [
        {
          "name": "",
          "type": "uint256"
        }
      ],
      "payable": false,
      "stateMutability": "view",
      "type": "function"
    },
    {
      "constant": true,
      "inputs": [
        {
          "name": "id",
          "type": "uint256"
        }
      ],
      "name": "contrinutors",
      "outputs": [
        {
          "name": "",
          "type": "address[]"
        }
      ],
      "payable": false,
      "stateMutability": "view",
      "type": "function"
    }
  ],
  "bytecode": "0x608060405260016000803373ffffffffffffffffffffffffffffffffffffffff1673ffffffffffffffffffffffffffffffffffffffff16815260200190815260200160002060006101000a81548160ff0219169083151502179055506113088061006a6000396000f3006080604052600436106100d0576000357c0100000000000000000000000000000000000000000000000000000000900463ffffffff1680630313766f146100d55780633656eec21461012c5780636c94fb441461018d5780639507d39a1461022d57806395a078e8146102cb5780639a4bc46b14610326578063a66161b014610387578063a9ed9cb814610427578063b13d3ecc1461046a578063b759f95414610497578063c1a12ce7146104c4578063dd640d33146104f1578063facd16a214610552578063ff9913e8146105d4575b600080fd5b3480156100e157600080fd5b5061012a60048036038101908080359060200190929190803573ffffffffffffffffffffffffffffffffffffffff16906020019092919080359060200190929190505050610617565b005b34801561013857600080fd5b5061017760048036038101908080359060200190929190803573ffffffffffffffffffffffffffffffffffffffff16906020019092919050505061081e565b6040518082815260200191505060405180910390f35b34801561019957600080fd5b506101ba600480360381019080803515159060200190929190505050610882565b604051808981526020018873ffffffffffffffffffffffffffffffffffffffff1673ffffffffffffffffffffffffffffffffffffffff1681526020018781526020018681526020018581526020018481526020018381526020018281526020019850505050505050505060405180910390f35b34801561023957600080fd5b506102586004803603810190808035906020019092919050505061093d565b604051808981526020018873ffffffffffffffffffffffffffffffffffffffff1673ffffffffffffffffffffffffffffffffffffffff1681526020018781526020018681526020018581526020018481526020018381526020018281526020019850505050505050505060405180910390f35b3480156102d757600080fd5b5061030c600480360381019080803573ffffffffffffffffffffffffffffffffffffffff169060200190929190505050610a08565b604051808215151515815260200191505060405180910390f35b34801561033257600080fd5b5061038560048036038101908080359060200190929190803573ffffffffffffffffffffffffffffffffffffffff1690602001909291908035906020019092919080359060200190929190505050610a28565b005b34801561039357600080fd5b506103b4600480360381019080803515159060200190929190505050610a96565b604051808981526020018873ffffffffffffffffffffffffffffffffffffffff1673ffffffffffffffffffffffffffffffffffffffff1681526020018781526020018681526020018581526020018481526020018381526020018281526020019850505050505050505060405180910390f35b34801561043357600080fd5b50610468600480360381019080803573ffffffffffffffffffffffffffffffffffffffff169060200190929190505050610b51565b005b34801561047657600080fd5b5061049560048036038101908080359060200190929190505050610c65565b005b3480156104a357600080fd5b506104c260048036038101908080359060200190929190505050610ccd565b005b3480156104d057600080fd5b506104ef60048036038101908080359060200190929190505050610d51565b005b3480156104fd57600080fd5b5061055060048036038101908080359060200190929190803573ffffffffffffffffffffffffffffffffffffffff1690602001909291908035906020019092919080359060200190929190505050610db8565b005b34801561055e57600080fd5b5061057d60048036038101908080359060200190929190505050610e25565b6040518080602001828103825283818151815260200191508051906020019060200280838360005b838110156105c05780820151818401526020810190506105a5565b505050509050019250505060405180910390f35b3480156105e057600080fd5b50610615600480360381019080803573ffffffffffffffffffffffffffffffffffffffff169060200190929190505050610ecf565b005b60008060003373ffffffffffffffffffffffffffffffffffffffff1673ffffffffffffffffffffffffffffffffffffffff16815260200190815260200160002060009054906101000a900460ff16151561067057600080fd5b6001600001600085815260200190815260200160002060000190506000816002015411151561069e57600080fd5b6000821115156106ad57600080fd5b60008160030160008573ffffffffffffffffffffffffffffffffffffffff1673ffffffffffffffffffffffffffffffffffffffff16815260200190815260200160002054141561076057806004018390806001815401808255809150509060018203906000526020600020016000909192909190916101000a81548173ffffffffffffffffffffffffffffffffffffffff021916908373ffffffffffffffffffffffffffffffffffffffff160217905550505b6107b4828260030160008673ffffffffffffffffffffffffffffffffffffffff1673ffffffffffffffffffffffffffffffffffffffff16815260200190815260200160002054610fe390919063ffffffff16565b8160030160008573ffffffffffffffffffffffffffffffffffffffff1673ffffffffffffffffffffffffffffffffffffffff16815260200190815260200160002081905550610810828260050154610fe390919063ffffffff16565b816005018190555050505050565b60006001600001600084815260200190815260200160002060000160030160008373ffffffffffffffffffffffffffffffffffffffff1673ffffffffffffffffffffffffffffffffffffffff16815260200190815260200160002054905092915050565b6000806000806000806000808815610911576000803373ffffffffffffffffffffffffffffffffffffffff1673ffffffffffffffffffffffffffffffffffffffff16815260200190815260200160002060009054906101000a900460ff1615156108eb57600080fd5b6108fc60016003016000015461093d565b97509750975097509750975097509750610932565b610921600180016000015461093d565b975097509750975097509750975097505b919395975091939597565b600080600080600080600080600080600160000160008c815260200190815260200160002091508160000190508a8160000160009054906101000a900473ffffffffffffffffffffffffffffffffffffffff16826001015483600201548460030160003373ffffffffffffffffffffffffffffffffffffffff1673ffffffffffffffffffffffffffffffffffffffff16815260200190815260200160002054856005015487600601548860070154995099509950995099509950995099505050919395975091939597565b60006020528060005260406000206000915054906101000a900460ff1681565b6000803373ffffffffffffffffffffffffffffffffffffffff1673ffffffffffffffffffffffffffffffffffffffff16815260200190815260200160002060009054906101000a900460ff161515610a7f57600080fd5b610a90600160030185858585611001565b50505050565b6000806000806000806000808815610b25576000803373ffffffffffffffffffffffffffffffffffffffff1673ffffffffffffffffffffffffffffffffffffffff16815260200190815260200160002060009054906101000a900460ff161515610aff57600080fd5b610b1060016003016001015461093d565b97509750975097509750975097509750610b46565b610b35600180016001015461093d565b975097509750975097509750975097505b919395975091939597565b6000803373ffffffffffffffffffffffffffffffffffffffff1673ffffffffffffffffffffffffffffffffffffffff16815260200190815260200160002060009054906101000a900460ff161515610ba857600080fd5b60008060008373ffffffffffffffffffffffffffffffffffffffff1673ffffffffffffffffffffffffffffffffffffffff16815260200190815260200160002060006101000a81548160ff0219169083151502179055507ff1abf01a1043b7c244d128e8595cf0c1d10743b022b03a02dffd8ca3bf729f5a81604051808273ffffffffffffffffffffffffffffffffffffffff1673ffffffffffffffffffffffffffffffffffffffff16815260200191505060405180910390a150565b6000803373ffffffffffffffffffffffffffffffffffffffff1673ffffffffffffffffffffffffffffffffffffffff16815260200190815260200160002060009054906101000a900460ff161515610cbc57600080fd5b610cca60016003018261112e565b50565b6000803373ffffffffffffffffffffffffffffffffffffffff1673ffffffffffffffffffffffffffffffffffffffff16815260200190815260200160002060009054906101000a900460ff161515610d2457600080fd5b600081111515610d3357600080fd5b610d4160016003018261112e565b610d4e6001800182611233565b50565b6000803373ffffffffffffffffffffffffffffffffffffffff1673ffffffffffffffffffffffffffffffffffffffff16815260200190815260200160002060009054906101000a900460ff161515610da857600080fd5b610db5600180018261112e565b50565b6000803373ffffffffffffffffffffffffffffffffffffffff1673ffffffffffffffffffffffffffffffffffffffff16815260200190815260200160002060009054906101000a900460ff161515610e0f57600080fd5b610e1f6001800185858585611001565b50505050565b606060016000016000838152602001908152602001600020600001600401805480602002602001604051908101604052809291908181526020018280548015610ec357602002820191906000526020600020905b8160009054906101000a900473ffffffffffffffffffffffffffffffffffffffff1673ffffffffffffffffffffffffffffffffffffffff1681526020019060010190808311610e79575b50505050509050919050565b6000803373ffffffffffffffffffffffffffffffffffffffff1673ffffffffffffffffffffffffffffffffffffffff16815260200190815260200160002060009054906101000a900460ff161515610f2657600080fd5b60016000808373ffffffffffffffffffffffffffffffffffffffff1673ffffffffffffffffffffffffffffffffffffffff16815260200190815260200160002060006101000a81548160ff0219169083151502179055507fd1bba68c128cc3f427e5831b3c6f99f480b6efa6b9e80c757768f6124158cc3f81604051808273ffffffffffffffffffffffffffffffffffffffff1673ffffffffffffffffffffffffffffffffffffffff16815260200191505060405180910390a150565b6000808284019050838110151515610ff757fe5b8091505092915050565b6000806000803373ffffffffffffffffffffffffffffffffffffffff1673ffffffffffffffffffffffffffffffffffffffff16815260200190815260200160002060009054906101000a900460ff16151561105b57600080fd5b60008611151561106a57600080fd5b60008411151561107957600080fd5b60008311151561108857600080fd5b600160000160008781526020019081526020016000209150816000019050600081600201541415156110b957600080fd5b848160000160006101000a81548173ffffffffffffffffffffffffffffffffffffffff021916908373ffffffffffffffffffffffffffffffffffffffff160217905550838160010181905550828160020181905550866001015482600601819055506111258787611233565b50505050505050565b60008060003373ffffffffffffffffffffffffffffffffffffffff1673ffffffffffffffffffffffffffffffffffffffff16815260200190815260200160002060009054906101000a900460ff16151561118757600080fd5b60008211151561119657600080fd5b60016000016000838152602001908152602001600020905080600701546001600001600083600601548152602001908152602001600020600701819055508060060154600160000160008360070154815260200190815260200160002060060181905550818360010154141561121457806006015483600101819055505b818360000154141561122e57806007015483600001819055505b505050565b6000803373ffffffffffffffffffffffffffffffffffffffff1673ffffffffffffffffffffffffffffffffffffffff16815260200190815260200160002060009054906101000a900460ff16151561128a57600080fd5b60008111151561129657fe5b806001600001600084600101548152602001908152602001600020600701819055508082600101819055506000826000015414156112d8578082600001819055505b50505600a165627a7a72305820fbbea14795fb5112fb5739f6031416b7787f5f844befef960033ef2746930b5a0029",
  "source": "pragma solidity ^0.4.24;\n\nimport \"zeppelin/contracts/math/SafeMath.sol\";\nimport \"./IDataStore.sol\";\n\n\ncontract DataStore is IDataStore {\n    // Using statements\n    using SafeMath for uint;\n    using SafeMath for uint256;\n\n    // Basic campaign structure\n    struct Campaign {\n        address owner;\n        uint256 goal;\n        uint256 date;\n        mapping(address => uint256) balanceOf;\n        address[] contributors;\n        uint256 raised;\n    }\n    \n    // Double linked list node\n    struct Node {\n        Campaign campaign;\n        uint256 prev;\n        uint256 next;\n    }\n    \n    // Linked list pointer\n    struct Pointer {\n        uint256 first;\n        uint256 last;\n    }\n\n    // Data holder\n    struct Data {\n        mapping(uint256 => Node) map;\n        Pointer approved;\n        Pointer pending;\n    }\n\n    // Attributes\n    Data data;\n\n    function insertPending(uint256 id, address owner, uint256 goal, uint256 date) public onlyWhitelisted {\n        insert(data.pending, id, owner, goal, date);\n    }\n\n    function insertApproved(uint256 id, address owner, uint256 goal, uint256 date) public onlyWhitelisted {\n        insert(data.approved, id, owner, goal, date);\n    }\n\n    function insert(Pointer storage pointer, uint256 id, address owner, uint256 goal, uint256 date) internal onlyWhitelisted {\n        // First sanity checks\n        require(id > 0);\n        require(goal > 0);\n        require(date > 0);\n\n        // Fetch campaign\n        Node storage node = data.map[id];\n        Campaign storage campaign = node.campaign;\n        \n        // Must not exist yet\n        require(campaign.date == 0);\n        \n        // Update the new node\n        campaign.owner = owner;\n        campaign.goal = goal;\n        campaign.date = date;\n        node.prev = pointer.last;\n\n        // Update previous node next\n        linkInsert(pointer, id);\n    }\n\n    function linkInsert(Pointer storage pointer, uint256 id) internal onlyWhitelisted {\n        // Can't be 0, its already been checked\n        assert(id > 0);\n\n        // Update previous node next\n        data.map[pointer.last].next = id;\n\n        // Update last ID\n        pointer.last = id;\n\n        // Update first?\n        if (pointer.first == 0) {\n            pointer.first = id;\n        }\n    }\n\n    function removePending(uint256 id) public onlyWhitelisted {\n        remove(data.pending, id);\n    }\n\n    function removeApproved(uint256 id) public onlyWhitelisted {\n        remove(data.approved, id);\n    }\n\n    function remove(Pointer storage pointer, uint256 id) internal onlyWhitelisted {\n        // Sanity check\n        require(id > 0);\n\n        Node storage node = data.map[id];\n\n        data.map[node.prev].next = node.next;\n        data.map[node.next].prev = node.prev;\n\n        if (pointer.last == id) {\n            pointer.last = node.prev;\n        }\n\n        if (pointer.first == id) {\n            pointer.first = node.next;\n        }\n    }\n\n    function approve(uint256 id) public onlyWhitelisted {\n        // Sanity check\n        require(id > 0);\n        \n        remove(data.pending, id);\n        linkInsert(data.approved, id);\n    }\n\n    // No rewards nor events are handled here\n    function pay(uint256 id, address who, uint256 amount) public onlyWhitelisted {\n        Campaign storage c = data.map[id].campaign;\n        require(c.date > 0);\n        require(amount > 0);\n\n        // Keep track of individual accounts\n        if (c.balanceOf[who] == 0) {\n            c.contributors.push(who);\n        }\n\n        // Update balance\n        c.balanceOf[who] = c.balanceOf[who].add(amount);\n        c.raised = c.raised.add(amount);\n    }\n\n    function get(uint256 id) public view returns(uint256, address, uint256, uint256, uint256, uint256, uint256, uint256) {\n        Node storage n = data.map[id];\n        Campaign storage c = n.campaign;\n        return (id, c.owner, c.goal, c.date, c.balanceOf[msg.sender], c.raised, n.prev, n.next);\n    }\n    \n    function first(bool pending) public view returns(uint256, address, uint256, uint256, uint256, uint256, uint256, uint256) {\n        if (pending) {\n            require(hasAccess[msg.sender]);\n            return get(data.pending.first);\n        }\n        \n        return get(data.approved.first);\n    }\n    \n    function last(bool pending) public view returns(uint256, address, uint256, uint256, uint256, uint256, uint256, uint256) {\n        if (pending) {\n            require(hasAccess[msg.sender]);\n            return get(data.pending.last);\n        }\n        \n        return get(data.approved.last);\n    }\n\n    function balanceOf(uint256 id, address user) public view returns(uint256) {\n        return data.map[id].campaign.balanceOf[user];\n    }\n\n    function contrinutors(uint256 id) public view returns(address[]) {\n        return data.map[id].campaign.contributors;\n    }\n}\n",
  "sourcePath": "/home/ancestral/Desktop/Ethstarter/contracts/contracts/DataStore.sol",
  "compiler": {
    "name": "solc",
    "version": "0.4.24+commit.e67f0147.Emscripten.clang"
  },
  "schemaVersion": "2.0.0",
  "updatedAt": "2018-05-27T15:09:44.612Z"
}