{
  "contractName": "DataStore",
  "abi": [
    {
      "constant": true,
      "inputs": [
        {
          "name": "",
          "type": "address"
        }
      ],
      "name": "hasAccess",
      "outputs": [
        {
          "name": "",
          "type": "bool"
        }
      ],
      "payable": false,
      "stateMutability": "view",
      "type": "function"
    },
    {
      "constant": false,
      "inputs": [
        {
          "name": "addr",
          "type": "address"
        }
      ],
      "name": "disallow",
      "outputs": [],
      "payable": false,
      "stateMutability": "nonpayable",
      "type": "function"
    },
    {
      "constant": false,
      "inputs": [
        {
          "name": "addr",
          "type": "address"
        }
      ],
      "name": "allow",
      "outputs": [],
      "payable": false,
      "stateMutability": "nonpayable",
      "type": "function"
    },
    {
      "anonymous": false,
      "inputs": [
        {
          "indexed": false,
          "name": "addr",
          "type": "address"
        }
      ],
      "name": "WhitelistedAddressAdded",
      "type": "event"
    },
    {
      "anonymous": false,
      "inputs": [
        {
          "indexed": false,
          "name": "addr",
          "type": "address"
        }
      ],
      "name": "WhitelistedAddressRemoved",
      "type": "event"
    },
    {
      "constant": false,
      "inputs": [
        {
          "name": "id",
          "type": "uint256"
        },
        {
          "name": "owner",
          "type": "address"
        },
        {
          "name": "goal",
          "type": "uint256"
        },
        {
          "name": "date",
          "type": "uint256"
        }
      ],
      "name": "insertPending",
      "outputs": [],
      "payable": false,
      "stateMutability": "nonpayable",
      "type": "function"
    },
    {
      "constant": false,
      "inputs": [
        {
          "name": "id",
          "type": "uint256"
        },
        {
          "name": "owner",
          "type": "address"
        },
        {
          "name": "goal",
          "type": "uint256"
        },
        {
          "name": "date",
          "type": "uint256"
        }
      ],
      "name": "insertApproved",
      "outputs": [],
      "payable": false,
      "stateMutability": "nonpayable",
      "type": "function"
    },
    {
      "constant": false,
      "inputs": [
        {
          "name": "id",
          "type": "uint256"
        }
      ],
      "name": "removePending",
      "outputs": [],
      "payable": false,
      "stateMutability": "nonpayable",
      "type": "function"
    },
    {
      "constant": false,
      "inputs": [
        {
          "name": "id",
          "type": "uint256"
        }
      ],
      "name": "removeApproved",
      "outputs": [],
      "payable": false,
      "stateMutability": "nonpayable",
      "type": "function"
    },
    {
      "constant": false,
      "inputs": [
        {
          "name": "id",
          "type": "uint256"
        }
      ],
      "name": "approve",
      "outputs": [],
      "payable": false,
      "stateMutability": "nonpayable",
      "type": "function"
    },
    {
      "constant": false,
      "inputs": [
        {
          "name": "id",
          "type": "uint256"
        },
        {
          "name": "who",
          "type": "address"
        },
        {
          "name": "amount",
          "type": "uint256"
        }
      ],
      "name": "pay",
      "outputs": [],
      "payable": false,
      "stateMutability": "nonpayable",
      "type": "function"
    },
    {
      "constant": true,
      "inputs": [
        {
          "name": "id",
          "type": "uint256"
        }
      ],
      "name": "get",
      "outputs": [
        {
          "name": "",
          "type": "uint256"
        },
        {
          "name": "",
          "type": "address"
        },
        {
          "name": "",
          "type": "uint256"
        },
        {
          "name": "",
          "type": "uint256"
        },
        {
          "name": "",
          "type": "uint256"
        },
        {
          "name": "",
          "type": "uint256"
        },
        {
          "name": "",
          "type": "uint256"
        }
      ],
      "payable": false,
      "stateMutability": "view",
      "type": "function"
    },
    {
      "constant": true,
      "inputs": [
        {
          "name": "pending",
          "type": "bool"
        }
      ],
      "name": "first",
      "outputs": [
        {
          "name": "",
          "type": "uint256"
        },
        {
          "name": "",
          "type": "address"
        },
        {
          "name": "",
          "type": "uint256"
        },
        {
          "name": "",
          "type": "uint256"
        },
        {
          "name": "",
          "type": "uint256"
        },
        {
          "name": "",
          "type": "uint256"
        },
        {
          "name": "",
          "type": "uint256"
        }
      ],
      "payable": false,
      "stateMutability": "view",
      "type": "function"
    },
    {
      "constant": true,
      "inputs": [
        {
          "name": "pending",
          "type": "bool"
        }
      ],
      "name": "last",
      "outputs": [
        {
          "name": "",
          "type": "uint256"
        },
        {
          "name": "",
          "type": "address"
        },
        {
          "name": "",
          "type": "uint256"
        },
        {
          "name": "",
          "type": "uint256"
        },
        {
          "name": "",
          "type": "uint256"
        },
        {
          "name": "",
          "type": "uint256"
        },
        {
          "name": "",
          "type": "uint256"
        }
      ],
      "payable": false,
      "stateMutability": "view",
      "type": "function"
    },
    {
      "constant": true,
      "inputs": [
        {
          "name": "id",
          "type": "uint256"
        },
        {
          "name": "user",
          "type": "address"
        }
      ],
      "name": "balanceOf",
      "outputs": [
        {
          "name": "",
          "type": "uint256"
        }
      ],
      "payable": false,
      "stateMutability": "view",
      "type": "function"
    },
    {
      "constant": true,
      "inputs": [
        {
          "name": "id",
          "type": "uint256"
        }
      ],
      "name": "contrinutors",
      "outputs": [
        {
          "name": "",
          "type": "address[]"
        }
      ],
      "payable": false,
      "stateMutability": "view",
      "type": "function"
    }
  ],
  "bytecode": "0x608060405260016000803373ffffffffffffffffffffffffffffffffffffffff1673ffffffffffffffffffffffffffffffffffffffff16815260200190815260200160002060006101000a81548160ff0219169083151502179055506112c28061006a6000396000f3006080604052600436106100d0576000357c0100000000000000000000000000000000000000000000000000000000900463ffffffff1680630313766f146100d55780633656eec21461012c5780636c94fb441461018d5780639507d39a1461022657806395a078e8146102bd5780639a4bc46b14610318578063a66161b014610379578063a9ed9cb814610412578063b13d3ecc14610455578063b759f95414610482578063c1a12ce7146104af578063dd640d33146104dc578063facd16a21461053d578063ff9913e8146105bf575b600080fd5b3480156100e157600080fd5b5061012a60048036038101908080359060200190929190803573ffffffffffffffffffffffffffffffffffffffff16906020019092919080359060200190929190505050610602565b005b34801561013857600080fd5b5061017760048036038101908080359060200190929190803573ffffffffffffffffffffffffffffffffffffffff1690602001909291905050506107ea565b6040518082815260200191505060405180910390f35b34801561019957600080fd5b506101ba60048036038101908080351515906020019092919050505061084e565b604051808881526020018773ffffffffffffffffffffffffffffffffffffffff1673ffffffffffffffffffffffffffffffffffffffff16815260200186815260200185815260200184815260200183815260200182815260200197505050505050505060405180910390f35b34801561023257600080fd5b5061025160048036038101908080359060200190929190505050610904565b604051808881526020018773ffffffffffffffffffffffffffffffffffffffff1673ffffffffffffffffffffffffffffffffffffffff16815260200186815260200185815260200184815260200183815260200182815260200197505050505050505060405180910390f35b3480156102c957600080fd5b506102fe600480360381019080803573ffffffffffffffffffffffffffffffffffffffff1690602001909291905050506109c7565b604051808215151515815260200191505060405180910390f35b34801561032457600080fd5b5061037760048036038101908080359060200190929190803573ffffffffffffffffffffffffffffffffffffffff16906020019092919080359060200190929190803590602001909291905050506109e7565b005b34801561038557600080fd5b506103a6600480360381019080803515159060200190929190505050610a55565b604051808881526020018773ffffffffffffffffffffffffffffffffffffffff1673ffffffffffffffffffffffffffffffffffffffff16815260200186815260200185815260200184815260200183815260200182815260200197505050505050505060405180910390f35b34801561041e57600080fd5b50610453600480360381019080803573ffffffffffffffffffffffffffffffffffffffff169060200190929190505050610b0b565b005b34801561046157600080fd5b5061048060048036038101908080359060200190929190505050610c1f565b005b34801561048e57600080fd5b506104ad60048036038101908080359060200190929190505050610c87565b005b3480156104bb57600080fd5b506104da60048036038101908080359060200190929190505050610d0b565b005b3480156104e857600080fd5b5061053b60048036038101908080359060200190929190803573ffffffffffffffffffffffffffffffffffffffff1690602001909291908035906020019092919080359060200190929190505050610d72565b005b34801561054957600080fd5b5061056860048036038101908080359060200190929190505050610ddf565b6040518080602001828103825283818151815260200191508051906020019060200280838360005b838110156105ab578082015181840152602081019050610590565b505050509050019250505060405180910390f35b3480156105cb57600080fd5b50610600600480360381019080803573ffffffffffffffffffffffffffffffffffffffff169060200190929190505050610e89565b005b60008060003373ffffffffffffffffffffffffffffffffffffffff1673ffffffffffffffffffffffffffffffffffffffff16815260200190815260200160002060009054906101000a900460ff16151561065b57600080fd5b6001600001600085815260200190815260200160002060000190506000816002015411151561068957600080fd5b60008211151561069857600080fd5b60008160030160008573ffffffffffffffffffffffffffffffffffffffff1673ffffffffffffffffffffffffffffffffffffffff16815260200190815260200160002054141561074b57806004018390806001815401808255809150509060018203906000526020600020016000909192909190916101000a81548173ffffffffffffffffffffffffffffffffffffffff021916908373ffffffffffffffffffffffffffffffffffffffff160217905550505b61079f828260030160008673ffffffffffffffffffffffffffffffffffffffff1673ffffffffffffffffffffffffffffffffffffffff16815260200190815260200160002054610f9d90919063ffffffff16565b8160030160008573ffffffffffffffffffffffffffffffffffffffff1673ffffffffffffffffffffffffffffffffffffffff1681526020019081526020016000208190555050505050565b60006001600001600084815260200190815260200160002060000160030160008373ffffffffffffffffffffffffffffffffffffffff1673ffffffffffffffffffffffffffffffffffffffff16815260200190815260200160002054905092915050565b600080600080600080600087156108da576000803373ffffffffffffffffffffffffffffffffffffffff1673ffffffffffffffffffffffffffffffffffffffff16815260200190815260200160002060009054906101000a900460ff1615156108b657600080fd5b6108c7600160030160000154610904565b96509650965096509650965096506108f9565b6108ea6001800160000154610904565b96509650965096509650965096505b919395979092949650565b6000806000806000806000806000600160000160008b81526020019081526020016000209150816000019050898160000160009054906101000a900473ffffffffffffffffffffffffffffffffffffffff16826001015483600201548460030160003373ffffffffffffffffffffffffffffffffffffffff1673ffffffffffffffffffffffffffffffffffffffff168152602001908152602001600020548660050154876006015498509850985098509850985098505050919395979092949650565b60006020528060005260406000206000915054906101000a900460ff1681565b6000803373ffffffffffffffffffffffffffffffffffffffff1673ffffffffffffffffffffffffffffffffffffffff16815260200190815260200160002060009054906101000a900460ff161515610a3e57600080fd5b610a4f600160030185858585610fbb565b50505050565b60008060008060008060008715610ae1576000803373ffffffffffffffffffffffffffffffffffffffff1673ffffffffffffffffffffffffffffffffffffffff16815260200190815260200160002060009054906101000a900460ff161515610abd57600080fd5b610ace600160030160010154610904565b9650965096509650965096509650610b00565b610af16001800160010154610904565b96509650965096509650965096505b919395979092949650565b6000803373ffffffffffffffffffffffffffffffffffffffff1673ffffffffffffffffffffffffffffffffffffffff16815260200190815260200160002060009054906101000a900460ff161515610b6257600080fd5b60008060008373ffffffffffffffffffffffffffffffffffffffff1673ffffffffffffffffffffffffffffffffffffffff16815260200190815260200160002060006101000a81548160ff0219169083151502179055507ff1abf01a1043b7c244d128e8595cf0c1d10743b022b03a02dffd8ca3bf729f5a81604051808273ffffffffffffffffffffffffffffffffffffffff1673ffffffffffffffffffffffffffffffffffffffff16815260200191505060405180910390a150565b6000803373ffffffffffffffffffffffffffffffffffffffff1673ffffffffffffffffffffffffffffffffffffffff16815260200190815260200160002060009054906101000a900460ff161515610c7657600080fd5b610c846001600301826110e8565b50565b6000803373ffffffffffffffffffffffffffffffffffffffff1673ffffffffffffffffffffffffffffffffffffffff16815260200190815260200160002060009054906101000a900460ff161515610cde57600080fd5b600081111515610ced57600080fd5b610cfb6001600301826110e8565b610d0860018001826111ed565b50565b6000803373ffffffffffffffffffffffffffffffffffffffff1673ffffffffffffffffffffffffffffffffffffffff16815260200190815260200160002060009054906101000a900460ff161515610d6257600080fd5b610d6f60018001826110e8565b50565b6000803373ffffffffffffffffffffffffffffffffffffffff1673ffffffffffffffffffffffffffffffffffffffff16815260200190815260200160002060009054906101000a900460ff161515610dc957600080fd5b610dd96001800185858585610fbb565b50505050565b606060016000016000838152602001908152602001600020600001600401805480602002602001604051908101604052809291908181526020018280548015610e7d57602002820191906000526020600020905b8160009054906101000a900473ffffffffffffffffffffffffffffffffffffffff1673ffffffffffffffffffffffffffffffffffffffff1681526020019060010190808311610e33575b50505050509050919050565b6000803373ffffffffffffffffffffffffffffffffffffffff1673ffffffffffffffffffffffffffffffffffffffff16815260200190815260200160002060009054906101000a900460ff161515610ee057600080fd5b60016000808373ffffffffffffffffffffffffffffffffffffffff1673ffffffffffffffffffffffffffffffffffffffff16815260200190815260200160002060006101000a81548160ff0219169083151502179055507fd1bba68c128cc3f427e5831b3c6f99f480b6efa6b9e80c757768f6124158cc3f81604051808273ffffffffffffffffffffffffffffffffffffffff1673ffffffffffffffffffffffffffffffffffffffff16815260200191505060405180910390a150565b6000808284019050838110151515610fb157fe5b8091505092915050565b6000806000803373ffffffffffffffffffffffffffffffffffffffff1673ffffffffffffffffffffffffffffffffffffffff16815260200190815260200160002060009054906101000a900460ff16151561101557600080fd5b60008611151561102457600080fd5b60008411151561103357600080fd5b60008311151561104257600080fd5b6001600001600087815260200190815260200160002091508160000190506000816002015414151561107357600080fd5b848160000160006101000a81548173ffffffffffffffffffffffffffffffffffffffff021916908373ffffffffffffffffffffffffffffffffffffffff160217905550838160010181905550828160020181905550866001015482600501819055506110df87876111ed565b50505050505050565b60008060003373ffffffffffffffffffffffffffffffffffffffff1673ffffffffffffffffffffffffffffffffffffffff16815260200190815260200160002060009054906101000a900460ff16151561114157600080fd5b60008211151561115057600080fd5b6001600001600083815260200190815260200160002090508060060154600160000160008360050154815260200190815260200160002060060181905550806005015460016000016000836006015481526020019081526020016000206005018190555081836001015414156111ce57806005015483600101819055505b81836000015414156111e857806006015483600001819055505b505050565b6000803373ffffffffffffffffffffffffffffffffffffffff1673ffffffffffffffffffffffffffffffffffffffff16815260200190815260200160002060009054906101000a900460ff16151561124457600080fd5b60008111151561125057fe5b80600160000160008460010154815260200190815260200160002060060181905550808260010181905550600082600001541415611292578082600001819055505b50505600a165627a7a72305820a71e5b82820116273bef95ca2eeab7a9463aaee172e86adf9aeab7013cd8a6eb0029",
  "source": "pragma solidity ^0.4.24;\n\nimport \"zeppelin/contracts/math/SafeMath.sol\";\nimport \"./IDataStore.sol\";\n\n\ncontract DataStore is IDataStore {\n    // Using statements\n    using SafeMath for uint;\n    using SafeMath for uint256;\n\n    // Basic campaign structure\n    struct Campaign {\n        address owner;\n        uint256 goal;\n        uint256 date;\n        mapping(address => uint256) balanceOf;\n        address[] contributors;\n    }\n    \n    // Double linked list node\n    struct Node {\n        Campaign campaign;\n        uint256 prev;\n        uint256 next;\n    }\n    \n    // Linked list pointer\n    struct Pointer {\n        uint256 first;\n        uint256 last;\n    }\n\n    // Data holder\n    struct Data {\n        mapping(uint256 => Node) map;\n        Pointer approved;\n        Pointer pending;\n    }\n\n    // Attributes\n    Data data;\n\n    function insertPending(uint256 id, address owner, uint256 goal, uint256 date) public onlyWhitelisted {\n        insert(data.pending, id, owner, goal, date);\n    }\n\n    function insertApproved(uint256 id, address owner, uint256 goal, uint256 date) public onlyWhitelisted {\n        insert(data.approved, id, owner, goal, date);\n    }\n\n    function insert(Pointer storage pointer, uint256 id, address owner, uint256 goal, uint256 date) internal onlyWhitelisted {\n        // First sanity checks\n        require(id > 0);\n        require(goal > 0);\n        require(date > 0);\n\n        // Fetch campaign\n        Node storage node = data.map[id];\n        Campaign storage campaign = node.campaign;\n        \n        // Must not exist yet\n        require(campaign.date == 0);\n        \n        // Update the new node\n        campaign.owner = owner;\n        campaign.goal = goal;\n        campaign.date = date;\n        node.prev = pointer.last;\n\n        // Update previous node next\n        linkInsert(pointer, id);\n    }\n\n    function linkInsert(Pointer storage pointer, uint256 id) internal onlyWhitelisted {\n        // Can't be 0, its already been checked\n        assert(id > 0);\n\n        // Update previous node next\n        data.map[pointer.last].next = id;\n\n        // Update last ID\n        pointer.last = id;\n\n        // Update first?\n        if (pointer.first == 0) {\n            pointer.first = id;\n        }\n    }\n\n    function removePending(uint256 id) public onlyWhitelisted {\n        remove(data.pending, id);\n    }\n\n    function removeApproved(uint256 id) public onlyWhitelisted {\n        remove(data.approved, id);\n    }\n\n    function remove(Pointer storage pointer, uint256 id) internal onlyWhitelisted {\n        // Sanity check\n        require(id > 0);\n\n        Node storage node = data.map[id];\n\n        data.map[node.prev].next = node.next;\n        data.map[node.next].prev = node.prev;\n\n        if (pointer.last == id) {\n            pointer.last = node.prev;\n        }\n\n        if (pointer.first == id) {\n            pointer.first = node.next;\n        }\n    }\n\n    function approve(uint256 id) public onlyWhitelisted {\n        // Sanity check\n        require(id > 0);\n        \n        remove(data.pending, id);\n        linkInsert(data.approved, id);\n    }\n\n    // No rewards nor events are handled here\n    function pay(uint256 id, address who, uint256 amount) public onlyWhitelisted {\n        Campaign storage c = data.map[id].campaign;\n        require(c.date > 0);\n        require(amount > 0);\n\n        // Keep track of individual accounts\n        if (c.balanceOf[who] == 0) {\n            c.contributors.push(who);\n        }\n\n        // Update balance\n        c.balanceOf[who] = c.balanceOf[who].add(amount);\n    }\n\n    function get(uint256 id) public view returns(uint256, address, uint256, uint256, uint256, uint256, uint256) {\n        Node storage n = data.map[id];\n        Campaign storage c = n.campaign;\n        return (id, c.owner, c.goal, c.date, c.balanceOf[msg.sender], n.prev, n.next);\n    }\n    \n    function first(bool pending) public view returns(uint256, address, uint256, uint256, uint256, uint256, uint256) {\n        if (pending) {\n            require(hasAccess[msg.sender]);\n            return get(data.pending.first);\n        }\n        \n        return get(data.approved.first);\n    }\n    \n    function last(bool pending) public view returns(uint256, address, uint256, uint256, uint256, uint256, uint256) {\n        if (pending) {\n            require(hasAccess[msg.sender]);\n            return get(data.pending.last);\n        }\n        \n        return get(data.approved.last);\n    }\n\n    function balanceOf(uint256 id, address user) public view returns(uint256) {\n        return data.map[id].campaign.balanceOf[user];\n    }\n\n    function contrinutors(uint256 id) public view returns(address[]) {\n        return data.map[id].campaign.contributors;\n    }\n}\n",
  "sourcePath": "/home/guillem/Github/Ethstarter/contracts/contracts/DataStore.sol",
  "compiler": {
    "name": "solc",
    "version": "0.4.24+commit.e67f0147.Emscripten.clang"
  },
  "schemaVersion": "2.0.0",
  "updatedAt": "2018-05-27T04:08:31.024Z"
}