{
  "contractName": "DataStore",
  "abi": [
    {
      "constant": true,
      "inputs": [],
      "name": "numApprovedCampaigns",
      "outputs": [
        {
          "name": "",
          "type": "uint256"
        }
      ],
      "payable": false,
      "stateMutability": "view",
      "type": "function"
    },
    {
      "constant": true,
      "inputs": [
        {
          "name": "",
          "type": "address"
        }
      ],
      "name": "hasAccess",
      "outputs": [
        {
          "name": "",
          "type": "bool"
        }
      ],
      "payable": false,
      "stateMutability": "view",
      "type": "function"
    },
    {
      "constant": true,
      "inputs": [],
      "name": "numPendingCampaigns",
      "outputs": [
        {
          "name": "",
          "type": "uint256"
        }
      ],
      "payable": false,
      "stateMutability": "view",
      "type": "function"
    },
    {
      "constant": false,
      "inputs": [
        {
          "name": "addr",
          "type": "address"
        }
      ],
      "name": "disallow",
      "outputs": [],
      "payable": false,
      "stateMutability": "nonpayable",
      "type": "function"
    },
    {
      "constant": false,
      "inputs": [
        {
          "name": "addr",
          "type": "address"
        }
      ],
      "name": "allow",
      "outputs": [],
      "payable": false,
      "stateMutability": "nonpayable",
      "type": "function"
    },
    {
      "anonymous": false,
      "inputs": [
        {
          "indexed": false,
          "name": "addr",
          "type": "address"
        }
      ],
      "name": "WhitelistedAddressAdded",
      "type": "event"
    },
    {
      "anonymous": false,
      "inputs": [
        {
          "indexed": false,
          "name": "addr",
          "type": "address"
        }
      ],
      "name": "WhitelistedAddressRemoved",
      "type": "event"
    },
    {
      "constant": false,
      "inputs": [
        {
          "name": "id",
          "type": "uint256"
        },
        {
          "name": "owner",
          "type": "address"
        },
        {
          "name": "goal",
          "type": "uint256"
        },
        {
          "name": "date",
          "type": "uint256"
        }
      ],
      "name": "insertPending",
      "outputs": [],
      "payable": false,
      "stateMutability": "nonpayable",
      "type": "function"
    },
    {
      "constant": false,
      "inputs": [
        {
          "name": "id",
          "type": "uint256"
        },
        {
          "name": "owner",
          "type": "address"
        },
        {
          "name": "goal",
          "type": "uint256"
        },
        {
          "name": "date",
          "type": "uint256"
        }
      ],
      "name": "insertApproved",
      "outputs": [],
      "payable": false,
      "stateMutability": "nonpayable",
      "type": "function"
    },
    {
      "constant": false,
      "inputs": [
        {
          "name": "id",
          "type": "uint256"
        }
      ],
      "name": "removePending",
      "outputs": [],
      "payable": false,
      "stateMutability": "nonpayable",
      "type": "function"
    },
    {
      "constant": false,
      "inputs": [
        {
          "name": "id",
          "type": "uint256"
        }
      ],
      "name": "removeApproved",
      "outputs": [],
      "payable": false,
      "stateMutability": "nonpayable",
      "type": "function"
    },
    {
      "constant": false,
      "inputs": [
        {
          "name": "id",
          "type": "uint256"
        }
      ],
      "name": "approve",
      "outputs": [],
      "payable": false,
      "stateMutability": "nonpayable",
      "type": "function"
    },
    {
      "constant": false,
      "inputs": [
        {
          "name": "id",
          "type": "uint256"
        },
        {
          "name": "who",
          "type": "address"
        },
        {
          "name": "amount",
          "type": "uint256"
        }
      ],
      "name": "pay",
      "outputs": [],
      "payable": false,
      "stateMutability": "nonpayable",
      "type": "function"
    },
    {
      "constant": true,
      "inputs": [
        {
          "name": "id",
          "type": "uint256"
        }
      ],
      "name": "get",
      "outputs": [
        {
          "name": "",
          "type": "uint256"
        },
        {
          "name": "",
          "type": "address"
        },
        {
          "name": "",
          "type": "uint256"
        },
        {
          "name": "",
          "type": "uint256"
        },
        {
          "name": "",
          "type": "uint256"
        },
        {
          "name": "",
          "type": "uint256"
        },
        {
          "name": "",
          "type": "uint256"
        },
        {
          "name": "",
          "type": "uint256"
        }
      ],
      "payable": false,
      "stateMutability": "view",
      "type": "function"
    },
    {
      "constant": true,
      "inputs": [
        {
          "name": "pending",
          "type": "bool"
        }
      ],
      "name": "first",
      "outputs": [
        {
          "name": "",
          "type": "uint256"
        },
        {
          "name": "",
          "type": "address"
        },
        {
          "name": "",
          "type": "uint256"
        },
        {
          "name": "",
          "type": "uint256"
        },
        {
          "name": "",
          "type": "uint256"
        },
        {
          "name": "",
          "type": "uint256"
        },
        {
          "name": "",
          "type": "uint256"
        },
        {
          "name": "",
          "type": "uint256"
        }
      ],
      "payable": false,
      "stateMutability": "view",
      "type": "function"
    },
    {
      "constant": true,
      "inputs": [
        {
          "name": "pending",
          "type": "bool"
        }
      ],
      "name": "last",
      "outputs": [
        {
          "name": "",
          "type": "uint256"
        },
        {
          "name": "",
          "type": "address"
        },
        {
          "name": "",
          "type": "uint256"
        },
        {
          "name": "",
          "type": "uint256"
        },
        {
          "name": "",
          "type": "uint256"
        },
        {
          "name": "",
          "type": "uint256"
        },
        {
          "name": "",
          "type": "uint256"
        },
        {
          "name": "",
          "type": "uint256"
        }
      ],
      "payable": false,
      "stateMutability": "view",
      "type": "function"
    },
    {
      "constant": true,
      "inputs": [
        {
          "name": "id",
          "type": "uint256"
        },
        {
          "name": "user",
          "type": "address"
        }
      ],
      "name": "balanceOf",
      "outputs": [
        {
          "name": "",
          "type": "uint256"
        }
      ],
      "payable": false,
      "stateMutability": "view",
      "type": "function"
    },
    {
      "constant": true,
      "inputs": [
        {
          "name": "id",
          "type": "uint256"
        }
      ],
      "name": "contributors",
      "outputs": [
        {
          "name": "",
          "type": "address[]"
        }
      ],
      "payable": false,
      "stateMutability": "view",
      "type": "function"
    }
  ],
  "bytecode": "0x608060405260016000803373ffffffffffffffffffffffffffffffffffffffff1673ffffffffffffffffffffffffffffffffffffffff16815260200190815260200160002060006101000a81548160ff0219169083151502179055506114418061006a6000396000f3006080604052600436106100e6576000357c0100000000000000000000000000000000000000000000000000000000900463ffffffff168063015f2121146100eb5780630313766f146101165780633656eec21461016d5780633cb5d100146101ce5780636c94fb44146102505780639507d39a146102f057806395a078e81461038e5780639a4bc46b146103e9578063a66161b01461044a578063a9bbb03c146104ea578063a9ed9cb814610515578063b13d3ecc14610558578063b759f95414610585578063c1a12ce7146105b2578063dd640d33146105df578063ff9913e814610640575b600080fd5b3480156100f757600080fd5b50610100610683565b6040518082815260200191505060405180910390f35b34801561012257600080fd5b5061016b60048036038101908080359060200190929190803573ffffffffffffffffffffffffffffffffffffffff16906020019092919080359060200190929190505050610689565b005b34801561017957600080fd5b506101b860048036038101908080359060200190929190803573ffffffffffffffffffffffffffffffffffffffff169060200190929190505050610890565b6040518082815260200191505060405180910390f35b3480156101da57600080fd5b506101f9600480360381019080803590602001909291905050506108f4565b6040518080602001828103825283818151815260200191508051906020019060200280838360005b8381101561023c578082015181840152602081019050610221565b505050509050019250505060405180910390f35b34801561025c57600080fd5b5061027d60048036038101908080351515906020019092919050505061099e565b604051808981526020018873ffffffffffffffffffffffffffffffffffffffff1673ffffffffffffffffffffffffffffffffffffffff1681526020018781526020018681526020018581526020018481526020018381526020018281526020019850505050505050505060405180910390f35b3480156102fc57600080fd5b5061031b60048036038101908080359060200190929190505050610a59565b604051808981526020018873ffffffffffffffffffffffffffffffffffffffff1673ffffffffffffffffffffffffffffffffffffffff1681526020018781526020018681526020018581526020018481526020018381526020018281526020019850505050505050505060405180910390f35b34801561039a57600080fd5b506103cf600480360381019080803573ffffffffffffffffffffffffffffffffffffffff169060200190929190505050610b24565b604051808215151515815260200191505060405180910390f35b3480156103f557600080fd5b5061044860048036038101908080359060200190929190803573ffffffffffffffffffffffffffffffffffffffff1690602001909291908035906020019092919080359060200190929190505050610b44565b005b34801561045657600080fd5b50610477600480360381019080803515159060200190929190505050610bce565b604051808981526020018873ffffffffffffffffffffffffffffffffffffffff1673ffffffffffffffffffffffffffffffffffffffff1681526020018781526020018681526020018581526020018481526020018381526020018281526020019850505050505050505060405180910390f35b3480156104f657600080fd5b506104ff610c89565b6040518082815260200191505060405180910390f35b34801561052157600080fd5b50610556600480360381019080803573ffffffffffffffffffffffffffffffffffffffff169060200190929190505050610c8f565b005b34801561056457600080fd5b5061058360048036038101908080359060200190929190505050610da3565b005b34801561059157600080fd5b506105b060048036038101908080359060200190929190505050610e27565b005b3480156105be57600080fd5b506105dd60048036038101908080359060200190929190505050610ee3565b005b3480156105eb57600080fd5b5061063e60048036038101908080359060200190929190803573ffffffffffffffffffffffffffffffffffffffff1690602001909291908035906020019092919080359060200190929190505050610f66565b005b34801561064c57600080fd5b50610681600480360381019080803573ffffffffffffffffffffffffffffffffffffffff169060200190929190505050610fef565b005b60065481565b60008060003373ffffffffffffffffffffffffffffffffffffffff1673ffffffffffffffffffffffffffffffffffffffff16815260200190815260200160002060009054906101000a900460ff1615156106e257600080fd5b6001600001600085815260200190815260200160002060000190506000816002015411151561071057600080fd5b60008211151561071f57600080fd5b60008160030160008573ffffffffffffffffffffffffffffffffffffffff1673ffffffffffffffffffffffffffffffffffffffff1681526020019081526020016000205414156107d257806004018390806001815401808255809150509060018203906000526020600020016000909192909190916101000a81548173ffffffffffffffffffffffffffffffffffffffff021916908373ffffffffffffffffffffffffffffffffffffffff160217905550505b610826828260030160008673ffffffffffffffffffffffffffffffffffffffff1673ffffffffffffffffffffffffffffffffffffffff1681526020019081526020016000205461110390919063ffffffff16565b8160030160008573ffffffffffffffffffffffffffffffffffffffff1673ffffffffffffffffffffffffffffffffffffffff1681526020019081526020016000208190555061088282826005015461110390919063ffffffff16565b816005018190555050505050565b60006001600001600084815260200190815260200160002060000160030160008373ffffffffffffffffffffffffffffffffffffffff1673ffffffffffffffffffffffffffffffffffffffff16815260200190815260200160002054905092915050565b60606001600001600083815260200190815260200160002060000160040180548060200260200160405190810160405280929190818152602001828054801561099257602002820191906000526020600020905b8160009054906101000a900473ffffffffffffffffffffffffffffffffffffffff1673ffffffffffffffffffffffffffffffffffffffff1681526020019060010190808311610948575b50505050509050919050565b6000806000806000806000808815610a2d576000803373ffffffffffffffffffffffffffffffffffffffff1673ffffffffffffffffffffffffffffffffffffffff16815260200190815260200160002060009054906101000a900460ff161515610a0757600080fd5b610a18600160030160000154610a59565b97509750975097509750975097509750610a4e565b610a3d6001800160000154610a59565b975097509750975097509750975097505b919395975091939597565b600080600080600080600080600080600160000160008c815260200190815260200160002091508160000190508a8160000160009054906101000a900473ffffffffffffffffffffffffffffffffffffffff16826001015483600201548460030160003373ffffffffffffffffffffffffffffffffffffffff1673ffffffffffffffffffffffffffffffffffffffff16815260200190815260200160002054856005015487600601548860070154995099509950995099509950995099505050919395975091939597565b60006020528060005260406000206000915054906101000a900460ff1681565b6000803373ffffffffffffffffffffffffffffffffffffffff1673ffffffffffffffffffffffffffffffffffffffff16815260200190815260200160002060009054906101000a900460ff161515610b9b57600080fd5b610bac600160030185858585611121565b610bc2600160075461110390919063ffffffff16565b60078190555050505050565b6000806000806000806000808815610c5d576000803373ffffffffffffffffffffffffffffffffffffffff1673ffffffffffffffffffffffffffffffffffffffff16815260200190815260200160002060009054906101000a900460ff161515610c3757600080fd5b610c48600160030160010154610a59565b97509750975097509750975097509750610c7e565b610c6d6001800160010154610a59565b975097509750975097509750975097505b919395975091939597565b60075481565b6000803373ffffffffffffffffffffffffffffffffffffffff1673ffffffffffffffffffffffffffffffffffffffff16815260200190815260200160002060009054906101000a900460ff161515610ce657600080fd5b60008060008373ffffffffffffffffffffffffffffffffffffffff1673ffffffffffffffffffffffffffffffffffffffff16815260200190815260200160002060006101000a81548160ff0219169083151502179055507ff1abf01a1043b7c244d128e8595cf0c1d10743b022b03a02dffd8ca3bf729f5a81604051808273ffffffffffffffffffffffffffffffffffffffff1673ffffffffffffffffffffffffffffffffffffffff16815260200191505060405180910390a150565b6000803373ffffffffffffffffffffffffffffffffffffffff1673ffffffffffffffffffffffffffffffffffffffff16815260200190815260200160002060009054906101000a900460ff161515610dfa57600080fd5b610e0860016003018261124e565b610e1e600160075461135390919063ffffffff16565b60078190555050565b6000803373ffffffffffffffffffffffffffffffffffffffff1673ffffffffffffffffffffffffffffffffffffffff16815260200190815260200160002060009054906101000a900460ff161515610e7e57600080fd5b600081111515610e8d57600080fd5b610e9b60016003018261124e565b610ea8600180018261136c565b610ebe600160075461135390919063ffffffff16565b600781905550610eda600160065461110390919063ffffffff16565b60068190555050565b6000803373ffffffffffffffffffffffffffffffffffffffff1673ffffffffffffffffffffffffffffffffffffffff16815260200190815260200160002060009054906101000a900460ff161515610f3a57600080fd5b610f47600180018261124e565b610f5d600160065461135390919063ffffffff16565b60068190555050565b6000803373ffffffffffffffffffffffffffffffffffffffff1673ffffffffffffffffffffffffffffffffffffffff16815260200190815260200160002060009054906101000a900460ff161515610fbd57600080fd5b610fcd6001800185858585611121565b610fe3600160065461110390919063ffffffff16565b60068190555050505050565b6000803373ffffffffffffffffffffffffffffffffffffffff1673ffffffffffffffffffffffffffffffffffffffff16815260200190815260200160002060009054906101000a900460ff16151561104657600080fd5b60016000808373ffffffffffffffffffffffffffffffffffffffff1673ffffffffffffffffffffffffffffffffffffffff16815260200190815260200160002060006101000a81548160ff0219169083151502179055507fd1bba68c128cc3f427e5831b3c6f99f480b6efa6b9e80c757768f6124158cc3f81604051808273ffffffffffffffffffffffffffffffffffffffff1673ffffffffffffffffffffffffffffffffffffffff16815260200191505060405180910390a150565b600080828401905083811015151561111757fe5b8091505092915050565b6000806000803373ffffffffffffffffffffffffffffffffffffffff1673ffffffffffffffffffffffffffffffffffffffff16815260200190815260200160002060009054906101000a900460ff16151561117b57600080fd5b60008611151561118a57600080fd5b60008411151561119957600080fd5b6000831115156111a857600080fd5b600160000160008781526020019081526020016000209150816000019050600081600201541415156111d957600080fd5b848160000160006101000a81548173ffffffffffffffffffffffffffffffffffffffff021916908373ffffffffffffffffffffffffffffffffffffffff16021790555083816001018190555082816002018190555086600101548260060181905550611245878761136c565b50505050505050565b60008060003373ffffffffffffffffffffffffffffffffffffffff1673ffffffffffffffffffffffffffffffffffffffff16815260200190815260200160002060009054906101000a900460ff1615156112a757600080fd5b6000821115156112b657600080fd5b60016000016000838152602001908152602001600020905080600701546001600001600083600601548152602001908152602001600020600701819055508060060154600160000160008360070154815260200190815260200160002060060181905550818360010154141561133457806006015483600101819055505b818360000154141561134e57806007015483600001819055505b505050565b600082821115151561136157fe5b818303905092915050565b6000803373ffffffffffffffffffffffffffffffffffffffff1673ffffffffffffffffffffffffffffffffffffffff16815260200190815260200160002060009054906101000a900460ff1615156113c357600080fd5b6000811115156113cf57fe5b80600160000160008460010154815260200190815260200160002060070181905550808260010181905550600082600001541415611411578082600001819055505b50505600a165627a7a723058207617f924a4537c48bec1e77f5a3099ab81dc12ca4f39e4e210ee78e8b59ed57c0029",
  "source": "pragma solidity ^0.4.24;\n\nimport \"zeppelin/contracts/math/SafeMath.sol\";\nimport \"./IDataStore.sol\";\n\n\ncontract DataStore is IDataStore {\n    // Using statements\n    using SafeMath for uint;\n    using SafeMath for uint256;\n\n    // Basic campaign structure\n    struct Campaign {\n        address owner;\n        uint256 goal;\n        uint256 date;\n        mapping(address => uint256) balanceOf;\n        address[] contributors;\n        uint256 raised;\n    }\n    \n    // Double linked list node\n    struct Node {\n        Campaign campaign;\n        uint256 prev;\n        uint256 next;\n    }\n    \n    // Linked list pointer\n    struct Pointer {\n        uint256 first;\n        uint256 last;\n    }\n\n    // Data holder\n    struct Data {\n        mapping(uint256 => Node) map;\n        Pointer approved;\n        Pointer pending;\n    }\n\n    // Attributes\n    Data internal data;\n    uint public numApprovedCampaigns;\n    uint public numPendingCampaigns;\n\n    function insertPending(uint256 id, address owner, uint256 goal, uint256 date) public onlyWhitelisted {\n        insert(data.pending, id, owner, goal, date);\n        numPendingCampaigns = numPendingCampaigns.add(1);\n    }\n\n    function insertApproved(uint256 id, address owner, uint256 goal, uint256 date) public onlyWhitelisted {\n        insert(data.approved, id, owner, goal, date);\n        numApprovedCampaigns = numApprovedCampaigns.add(1);\n    }\n\n    function insert(Pointer storage pointer, uint256 id, address owner, uint256 goal, uint256 date) internal onlyWhitelisted {\n        // First sanity checks\n        require(id > 0);\n        require(goal > 0);\n        require(date > 0);\n\n        // Fetch campaign\n        Node storage node = data.map[id];\n        Campaign storage campaign = node.campaign;\n        \n        // Must not exist yet\n        require(campaign.date == 0);\n        \n        // Update the new node\n        campaign.owner = owner;\n        campaign.goal = goal;\n        campaign.date = date;\n        node.prev = pointer.last;\n\n        // Update previous node next\n        linkInsert(pointer, id);\n    }\n\n    function linkInsert(Pointer storage pointer, uint256 id) internal onlyWhitelisted {\n        // Can't be 0, its already been checked\n        assert(id > 0);\n\n        // Update previous node next\n        data.map[pointer.last].next = id;\n\n        // Update last ID\n        pointer.last = id;\n\n        // Update first?\n        if (pointer.first == 0) {\n            pointer.first = id;\n        }\n    }\n\n    function removePending(uint256 id) public onlyWhitelisted {\n        remove(data.pending, id);\n        numPendingCampaigns = numPendingCampaigns.sub(1);\n    }\n\n    function removeApproved(uint256 id) public onlyWhitelisted {\n        remove(data.approved, id);\n        numApprovedCampaigns = numApprovedCampaigns.sub(1);\n    }\n\n    function remove(Pointer storage pointer, uint256 id) internal onlyWhitelisted {\n        // Sanity check\n        require(id > 0);\n\n        Node storage node = data.map[id];\n\n        data.map[node.prev].next = node.next;\n        data.map[node.next].prev = node.prev;\n\n        if (pointer.last == id) {\n            pointer.last = node.prev;\n        }\n\n        if (pointer.first == id) {\n            pointer.first = node.next;\n        }\n    }\n\n    function approve(uint256 id) public onlyWhitelisted {\n        // Sanity check\n        require(id > 0);\n        \n        // Relink appropiately\n        remove(data.pending, id);\n        linkInsert(data.approved, id);\n\n        // Update counts\n        numPendingCampaigns = numPendingCampaigns.sub(1);\n        numApprovedCampaigns = numApprovedCampaigns.add(1);\n    }\n\n    // No rewards nor events are handled here\n    function pay(uint256 id, address who, uint256 amount) public onlyWhitelisted {\n        Campaign storage c = data.map[id].campaign;\n        require(c.date > 0);\n        require(amount > 0);\n\n        // Keep track of individual accounts\n        if (c.balanceOf[who] == 0) {\n            c.contributors.push(who);\n        }\n\n        // Update balance\n        c.balanceOf[who] = c.balanceOf[who].add(amount);\n        c.raised = c.raised.add(amount);\n    }\n\n    function get(uint256 id) public view returns(uint256, address, uint256, uint256, uint256, uint256, uint256, uint256) {\n        Node storage n = data.map[id];\n        Campaign storage c = n.campaign;\n        return (id, c.owner, c.goal, c.date, c.balanceOf[msg.sender], c.raised, n.prev, n.next);\n    }\n    \n    function first(bool pending) public view returns(uint256, address, uint256, uint256, uint256, uint256, uint256, uint256) {\n        if (pending) {\n            require(hasAccess[msg.sender]);\n            return get(data.pending.first);\n        }\n        \n        return get(data.approved.first);\n    }\n    \n    function last(bool pending) public view returns(uint256, address, uint256, uint256, uint256, uint256, uint256, uint256) {\n        if (pending) {\n            require(hasAccess[msg.sender]);\n            return get(data.pending.last);\n        }\n        \n        return get(data.approved.last);\n    }\n\n    function balanceOf(uint256 id, address user) public view returns(uint256) {\n        return data.map[id].campaign.balanceOf[user];\n    }\n\n    function contributors(uint256 id) public view returns(address[]) {\n        return data.map[id].campaign.contributors;\n    }\n}\n",
  "sourcePath": "/Users/cristianmurielordonez/Desktop/Ethstarter/contracts/contracts/DataStore.sol",
  "compiler": {
    "name": "solc",
    "version": "0.4.24+commit.e67f0147.Emscripten.clang"
  },
  "schemaVersion": "2.0.0",
  "updatedAt": "2018-06-10T22:06:00.053Z"
}