{
  "contractName": "EthStarter",
  "abi": [
    {
      "constant": true,
      "inputs": [
        {
          "name": "_startIndex",
          "type": "uint256"
        },
        {
          "name": "_limit",
          "type": "uint256"
        }
      ],
      "name": "getCampaigns",
      "outputs": [
        {
          "components": [
            {
              "name": "id",
              "type": "uint256"
            },
            {
              "name": "goalAmmount",
              "type": "uint256"
            },
            {
              "name": "endDate",
              "type": "uint256"
            },
            {
              "name": "creationDate",
              "type": "uint256"
            },
            {
              "name": "isPublished",
              "type": "bool"
            },
            {
              "name": "title",
              "type": "string"
            },
            {
              "name": "website",
              "type": "string"
            },
            {
              "name": "description",
              "type": "string"
            }
          ],
          "name": "",
          "type": "tuple[]"
        }
      ],
      "payable": false,
      "stateMutability": "view",
      "type": "function"
    },
    {
      "constant": true,
      "inputs": [],
      "name": "getTestString",
      "outputs": [
        {
          "name": "",
          "type": "string"
        }
      ],
      "payable": false,
      "stateMutability": "pure",
      "type": "function"
    },
    {
      "constant": false,
      "inputs": [],
      "name": "kill",
      "outputs": [],
      "payable": false,
      "stateMutability": "nonpayable",
      "type": "function"
    },
    {
      "constant": false,
      "inputs": [
        {
          "name": "_goalAmmount",
          "type": "uint256"
        },
        {
          "name": "_title",
          "type": "string"
        },
        {
          "name": "_website",
          "type": "string"
        },
        {
          "name": "_description",
          "type": "string"
        },
        {
          "name": "_endDate",
          "type": "uint256"
        },
        {
          "name": "_isPublished",
          "type": "bool"
        }
      ],
      "name": "createCampaign",
      "outputs": [],
      "payable": false,
      "stateMutability": "nonpayable",
      "type": "function"
    },
    {
      "payable": true,
      "stateMutability": "payable",
      "type": "fallback"
    },
    {
      "anonymous": false,
      "inputs": [
        {
          "indexed": false,
          "name": "_creator",
          "type": "address"
        },
        {
          "indexed": false,
          "name": "_campaignID",
          "type": "uint256"
        }
      ],
      "name": "onCampaignCreated",
      "type": "event"
    }
  ],
  "bytecode": "0x60606040526000600155336000806101000a81548173ffffffffffffffffffffffffffffffffffffffff021916908373ffffffffffffffffffffffffffffffffffffffff160217905550610f65806100586000396000f300606060405260043610610062576000357c0100000000000000000000000000000000000000000000000000000000900463ffffffff16806309051566146100645780632f91be481461009a57806341c0e1b5146100c357806395dc2642146100d8575b005b341561006f57600080fd5b610084600461007f903690610b6f565b6100fa565b6040516100919190610da2565b60405180910390f35b34156100a557600080fd5b6100ad610413565b6040516100ba9190610dc4565b60405180910390f35b34156100ce57600080fd5b6100d6610456565b005b34156100e357600080fd5b6100f860046100f3903690610a7a565b6104e7565b005b610102610759565b61010a610759565b6000808460405180591061011b5750595b90808252806020026020018201604052801561015157816020015b61013e61076d565b8152602001906001900390816101365790505b5092506003805490508610151561016a5782935061040a565b85915084860190505b8082108015610186575060038054905082105b15610406576003828060010193508154811015156101a057fe5b90600052602060002090600802016101006040519081016040529081600082015481526020016001820154815260200160028201548152602001600382015481526020016004820160009054906101000a900460ff16151515158152602001600582018054600181600116156101000203166002900480601f0160208091040260200160405190810160405280929190818152602001828054600181600116156101000203166002900480156102975780601f1061026c57610100808354040283529160200191610297565b820191906000526020600020905b81548152906001019060200180831161027a57829003601f168201915b50505050508152602001600682018054600181600116156101000203166002900480601f0160208091040260200160405190810160405280929190818152602001828054600181600116156101000203166002900480156103395780601f1061030e57610100808354040283529160200191610339565b820191906000526020600020905b81548152906001019060200180831161031c57829003601f168201915b50505050508152602001600782018054600181600116156101000203166002900480601f0160208091040260200160405190810160405280929190818152602001828054600181600116156101000203166002900480156103db5780601f106103b0576101008083540402835291602001916103db565b820191906000526020600020905b8154815290600101906020018083116103be57829003601f168201915b505050505081525050838784038151811015156103f457fe5b90602001906020020181905250610173565b8293505b50505092915050565b61041b6107c7565b6040805190810160405280601181526020017f4d6572656e677565204d6572656e677565000000000000000000000000000000815250905090565b6000809054906101000a900473ffffffffffffffffffffffffffffffffffffffff1673ffffffffffffffffffffffffffffffffffffffff163373ffffffffffffffffffffffffffffffffffffffff1614156104e5576000809054906101000a900473ffffffffffffffffffffffffffffffffffffffff1673ffffffffffffffffffffffffffffffffffffffff16ff5b565b6104ef6107db565b61010060405190810160405280600160008154809291906001019190505581526020018881526020018481526020014281526020018315158152602001878152602001868152602001858152509050600260003373ffffffffffffffffffffffffffffffffffffffff1673ffffffffffffffffffffffffffffffffffffffff168152602001908152602001600020805480600101828161058f9190610835565b916000526020600020906008020160008390919091506000820151816000015560208201518160010155604082015181600201556060820151816003015560808201518160040160006101000a81548160ff02191690831515021790555060a0820151816005019080519060200190610609929190610867565b5060c0820151816006019080519060200190610626929190610867565b5060e0820151816007019080519060200190610643929190610867565b505050506003805480600101828161065b9190610835565b916000526020600020906008020160008390919091506000820151816000015560208201518160010155604082015181600201556060820151816003015560808201518160040160006101000a81548160ff02191690831515021790555060a08201518160050190805190602001906106d5929190610867565b5060c08201518160060190805190602001906106f2929190610867565b5060e082015181600701908051906020019061070f929190610867565b505050507f2257ff5a67b8808dcc0ed4dffa1e4e4198a61916cd0c04bd225c03d0fb479860338260000151604051610748929190610d79565b60405180910390a150505050505050565b602060405190810160405280600081525090565b61010060405190810160405280600081526020016000815260200160008152602001600081526020016000151581526020016107a76108e7565b81526020016107b46108e7565b81526020016107c16108e7565b81525090565b602060405190810160405280600081525090565b61010060405190810160405280600081526020016000815260200160008152602001600081526020016000151581526020016108156108e7565b81526020016108226108e7565b815260200161082f6108e7565b81525090565b8154818355818115116108625760080281600802836000526020600020918201910161086191906108fb565b5b505050565b828054600181600116156101000203166002900490600052602060002090601f016020900481019282601f106108a857805160ff19168380011785556108d6565b828001600101855582156108d6579182015b828111156108d55782518255916020019190600101906108ba565b5b5090506108e3919061097e565b5090565b602060405190810160405280600081525090565b61097b91905b80821115610977576000808201600090556001820160009055600282016000905560038201600090556004820160006101000a81549060ff021916905560058201600061094e91906109a3565b60068201600061095e91906109a3565b60078201600061096e91906109a3565b50600801610901565b5090565b90565b6109a091905b8082111561099c576000816000905550600101610984565b5090565b90565b50805460018160011615610100020316600290046000825580601f106109c957506109e8565b601f0160209004906000526020600020908101906109e7919061097e565b5b50565b60006109f78235610ec2565b905092915050565b600082601f83011260008114610a1457610a19565b600080fd5b508135610a2d610a2882610e1c565b610de6565b91508082526020830160208301858383011160018114610a4c57610a51565b600080fd5b50610a5d838284610ed8565b50505092915050565b6000610a728235610ece565b905092915050565b60008060008060008060c08789031260018114610a9657610a9b565b600080fd5b506000610aaa89828a01610a66565b965050602087013567ffffffffffffffff811160018114610aca57610acf565b600080fd5b50610adc89828a016109ff565b955050604087013567ffffffffffffffff811160018114610afc57610b01565b600080fd5b50610b0e89828a016109ff565b945050606087013567ffffffffffffffff811160018114610b2e57610b33565b600080fd5b50610b4089828a016109ff565b9350506080610b5189828a01610a66565b92505060a0610b6289828a016109eb565b9150509295509295509295565b60008060408385031260018114610b8557610b8a565b600080fd5b506000610b9985828601610a66565b9250506020610baa85828601610a66565b9150509250929050565b610bbd81610e8c565b82525050565b6000610bce82610e5e565b80845260208401935083602082028501610be785610e51565b60005b84811015610c20578383038852610c02838351610cac565b9250610c0d82610e7f565b9150602088019750600181019050610bea565b508196508694505050505092915050565b610c3a81610eac565b82525050565b6000610c4b82610e74565b808452610c5f816020860160208601610ee7565b610c6881610f1a565b602085010191505092915050565b6000610c8182610e69565b808452610c95816020860160208601610ee7565b610c9e81610f1a565b602085010191505092915050565b600061010083016000830151610cc56000860182610d6a565b506020830151610cd86020860182610d6a565b506040830151610ceb6040860182610d6a565b506060830151610cfe6060860182610d6a565b506080830151610d116080860182610c31565b5060a083015184820360a0860152610d298282610c76565b91505060c083015184820360c0860152610d438282610c76565b91505060e083015184820360e0860152610d5d8282610c76565b9150508091505092915050565b610d7381610eb8565b82525050565b6000604082019050610d8e6000830185610bb4565b610d9b6020830184610d6a565b9392505050565b60006020820190508181036000830152610dbc8184610bc3565b905092915050565b60006020820190508181036000830152610dde8184610c40565b905092915050565b6000604051905081810181811067ffffffffffffffff82111760018114610e0c57610e11565b600080fd5b508060405250919050565b600067ffffffffffffffff821160018114610e3657610e3b565b600080fd5b50601f19601f8301169050602081019050919050565b6000602082019050919050565b600081519050919050565b600081519050919050565b600081519050919050565b6000602082019050919050565b600073ffffffffffffffffffffffffffffffffffffffff82169050919050565b60008115159050919050565b6000819050919050565b60008115159050919050565b6000819050919050565b82818337600083830152505050565b60005b83811015610f05578082015181840152602081019050610eea565b83811115610f14576000848401525b50505050565b6000601f19601f83011690509190505600a265627a7a72305820816951a4a733179385598cf6108d2f8fd73f9889aed51d33639ebbf8ab719aff6c6578706572696d656e74616cf50037",
  "source": "pragma solidity ^0.4.0;\r\n// To return structs\r\npragma experimental ABIEncoderV2;\r\n\r\nimport \"./Mortal.sol\";\r\n\r\nlibrary SafeMath {\r\n    function mul(uint256 a, uint256 b) internal pure returns (uint256) {\r\n        if (a == 0) {\r\n            return 0;\r\n        }\r\n        uint256 c = a * b;\r\n        assert(c / a == b);\r\n        return c;\r\n    }\r\n\r\n    function div(uint256 a, uint256 b) internal pure returns (uint256) {\r\n        uint256 c = a / b;\r\n        return c;\r\n    }\r\n\r\n    function sub(uint256 a, uint256 b) internal pure returns (uint256) {\r\n        assert(b <= a);\r\n        return a - b;\r\n    }\r\n\r\n    function add(uint256 a, uint256 b) internal pure returns (uint256) {\r\n        uint256 c = a + b;\r\n        assert(c >= a);\r\n        return c;\r\n    }\r\n}\r\n\r\ncontract EthStarter is mortal{\r\n    \r\n    // Campaign\r\n    struct Campaign {\r\n        // NOTE: Those will stay here\r\n        uint id;\r\n        uint256 goalAmmount;\r\n        uint256 endDate;\r\n        uint256 creationDate;\r\n\r\n        //TODO: Move to another storage system\r\n        bool isPublished;\r\n        string title;\r\n        string website;\r\n        string description;\r\n    }\r\n\r\n    uint campaignCounter = 0;\r\n\r\n    // A regular map\r\n    mapping(address => Campaign[]) userCampaigns;\r\n    Campaign[] allCampaigns;\r\n\r\n    // Create an event when someone is added\r\n    event onCampaignCreated(address _creator, uint _campaignID);\r\n\r\n    function createCampaign(uint _goalAmmount, string _title, string _website, string _description, uint256 _endDate, bool _isPublished) public {\r\n        Campaign memory campaign = Campaign(campaignCounter++, _goalAmmount, _endDate, block.timestamp, _isPublished, _title, _website, _description);     \r\n        userCampaigns[msg.sender].push(campaign);\r\n        allCampaigns.push(campaign);\r\n        onCampaignCreated(msg.sender, campaign.id);\r\n    }\r\n\r\n    function getCampaigns(uint256 _startIndex, uint256 _limit) public view returns (Campaign[]){\r\n        Campaign[] memory toReturn = new Campaign[](_limit);\r\n        if(_startIndex >= allCampaigns.length)\r\n            return toReturn;\r\n        \r\n        uint256 i = _startIndex;\r\n        uint256 end = _startIndex + _limit; \r\n        while(i < end && i < allCampaigns.length)\r\n            toReturn[i - _startIndex] = allCampaigns[i++];\r\n        \r\n        return toReturn;   \r\n    }\r\n\r\n    function getTestString() public pure returns(string){\r\n        return \"Merengue Merengue\";\r\n    }\r\n\r\n    // Like that we can send ether to the contract\r\n    function() payable public{\r\n        \r\n    }       \r\n}",
  "sourcePath": "C:\\Users\\cmuri\\Desktop\\Ethstarter\\contracts\\contracts\\EthStarter.sol",
  "compiler": {
    "name": "solc",
    "version": "0.4.19+commit.c4cbbb05.Emscripten.clang"
  },
  "schemaVersion": "2.0.0",
  "updatedAt": "2018-05-10T23:54:48.827Z"
}