{
  "contractName": "EthStarter",
  "abi": [
    {
      "constant": true,
      "inputs": [
        {
          "name": "_startIndex",
          "type": "uint256"
        },
        {
          "name": "_limit",
          "type": "uint256"
        }
      ],
      "name": "getCampaigns",
      "outputs": [
        {
          "components": [
            {
              "name": "id",
              "type": "uint256"
            },
            {
              "name": "goalAmmount",
              "type": "uint256"
            },
            {
              "name": "endDate",
              "type": "uint256"
            },
            {
              "name": "creationDate",
              "type": "uint256"
            },
            {
              "name": "isPublished",
              "type": "bool"
            },
            {
              "name": "title",
              "type": "string"
            },
            {
              "name": "website",
              "type": "string"
            },
            {
              "name": "description",
              "type": "string"
            }
          ],
          "name": "",
          "type": "tuple[]"
        }
      ],
      "payable": false,
      "stateMutability": "view",
      "type": "function"
    },
    {
      "constant": true,
      "inputs": [],
      "name": "getTestString",
      "outputs": [
        {
          "name": "",
          "type": "string"
        }
      ],
      "payable": false,
      "stateMutability": "pure",
      "type": "function"
    },
    {
      "constant": true,
      "inputs": [
        {
          "name": "_address",
          "type": "address"
        }
      ],
      "name": "hasCampaigns",
      "outputs": [
        {
          "name": "",
          "type": "bool"
        }
      ],
      "payable": false,
      "stateMutability": "view",
      "type": "function"
    },
    {
      "constant": false,
      "inputs": [],
      "name": "kill",
      "outputs": [],
      "payable": false,
      "stateMutability": "nonpayable",
      "type": "function"
    },
    {
      "constant": false,
      "inputs": [
        {
          "name": "_goalAmmount",
          "type": "uint256"
        },
        {
          "name": "_title",
          "type": "string"
        },
        {
          "name": "_website",
          "type": "string"
        },
        {
          "name": "_description",
          "type": "string"
        },
        {
          "name": "_endDate",
          "type": "uint256"
        },
        {
          "name": "_isPublished",
          "type": "bool"
        }
      ],
      "name": "createCampaign",
      "outputs": [],
      "payable": false,
      "stateMutability": "nonpayable",
      "type": "function"
    },
    {
      "payable": true,
      "stateMutability": "payable",
      "type": "fallback"
    },
    {
      "anonymous": false,
      "inputs": [
        {
          "indexed": false,
          "name": "_creator",
          "type": "address"
        },
        {
          "indexed": false,
          "name": "_campaignID",
          "type": "uint256"
        }
      ],
      "name": "onCampaignCreated",
      "type": "event"
    }
  ],
  "bytecode": "0x60606040526000600155336000806101000a81548173ffffffffffffffffffffffffffffffffffffffff021916908373ffffffffffffffffffffffffffffffffffffffff160217905550611075806100586000396000f30060606040526004361061006d576000357c0100000000000000000000000000000000000000000000000000000000900463ffffffff168063090515661461006f5780632f91be48146100a557806334d97c5d146100ce57806341c0e1b51461010457806395dc264214610119575b005b341561007a57600080fd5b61008f600461008a903690610c44565b61013b565b60405161009c9190610e77565b60405180910390f35b34156100b057600080fd5b6100b8610454565b6040516100c59190610eb4565b60405180910390f35b34156100d957600080fd5b6100ee60046100e9903690610b1d565b610497565b6040516100fb9190610e99565b60405180910390f35b341561010f57600080fd5b6101176104e5565b005b341561012457600080fd5b6101396004610134903690610b4f565b610576565b005b6101436107e8565b61014b6107e8565b6000808460405180591061015c5750595b90808252806020026020018201604052801561019257816020015b61017f6107fc565b8152602001906001900390816101775790505b509250600380549050861015156101ab5782935061044b565b85915084860190505b80821080156101c7575060038054905082105b15610447576003828060010193508154811015156101e157fe5b90600052602060002090600802016101006040519081016040529081600082015481526020016001820154815260200160028201548152602001600382015481526020016004820160009054906101000a900460ff16151515158152602001600582018054600181600116156101000203166002900480601f0160208091040260200160405190810160405280929190818152602001828054600181600116156101000203166002900480156102d85780601f106102ad576101008083540402835291602001916102d8565b820191906000526020600020905b8154815290600101906020018083116102bb57829003601f168201915b50505050508152602001600682018054600181600116156101000203166002900480601f01602080910402602001604051908101604052809291908181526020018280546001816001161561010002031660029004801561037a5780601f1061034f5761010080835404028352916020019161037a565b820191906000526020600020905b81548152906001019060200180831161035d57829003601f168201915b50505050508152602001600782018054600181600116156101000203166002900480601f01602080910402602001604051908101604052809291908181526020018280546001816001161561010002031660029004801561041c5780601f106103f15761010080835404028352916020019161041c565b820191906000526020600020905b8154815290600101906020018083116103ff57829003601f168201915b5050505050815250508387840381518110151561043557fe5b906020019060200201819052506101b4565b8293505b50505092915050565b61045c610856565b6040805190810160405280601181526020017f4d6572656e677565204d6572656e677565000000000000000000000000000000815250905090565b600080600260008473ffffffffffffffffffffffffffffffffffffffff1673ffffffffffffffffffffffffffffffffffffffff16815260200190815260200160002080549050119050919050565b6000809054906101000a900473ffffffffffffffffffffffffffffffffffffffff1673ffffffffffffffffffffffffffffffffffffffff163373ffffffffffffffffffffffffffffffffffffffff161415610574576000809054906101000a900473ffffffffffffffffffffffffffffffffffffffff1673ffffffffffffffffffffffffffffffffffffffff16ff5b565b61057e61086a565b61010060405190810160405280600160008154809291906001019190505581526020018881526020018481526020014281526020018315158152602001878152602001868152602001858152509050600260003373ffffffffffffffffffffffffffffffffffffffff1673ffffffffffffffffffffffffffffffffffffffff168152602001908152602001600020805480600101828161061e91906108c4565b916000526020600020906008020160008390919091506000820151816000015560208201518160010155604082015181600201556060820151816003015560808201518160040160006101000a81548160ff02191690831515021790555060a08201518160050190805190602001906106989291906108f6565b5060c08201518160060190805190602001906106b59291906108f6565b5060e08201518160070190805190602001906106d29291906108f6565b50505050600380548060010182816106ea91906108c4565b916000526020600020906008020160008390919091506000820151816000015560208201518160010155604082015181600201556060820151816003015560808201518160040160006101000a81548160ff02191690831515021790555060a08201518160050190805190602001906107649291906108f6565b5060c08201518160060190805190602001906107819291906108f6565b5060e082015181600701908051906020019061079e9291906108f6565b505050507f2257ff5a67b8808dcc0ed4dffa1e4e4198a61916cd0c04bd225c03d0fb4798603382600001516040516107d7929190610e4e565b60405180910390a150505050505050565b602060405190810160405280600081525090565b6101006040519081016040528060008152602001600081526020016000815260200160008152602001600015158152602001610836610976565b8152602001610843610976565b8152602001610850610976565b81525090565b602060405190810160405280600081525090565b61010060405190810160405280600081526020016000815260200160008152602001600081526020016000151581526020016108a4610976565b81526020016108b1610976565b81526020016108be610976565b81525090565b8154818355818115116108f1576008028160080283600052602060002091820191016108f0919061098a565b5b505050565b828054600181600116156101000203166002900490600052602060002090601f016020900481019282601f1061093757805160ff1916838001178555610965565b82800160010185558215610965579182015b82811115610964578251825591602001919060010190610949565b5b5090506109729190610a0d565b5090565b602060405190810160405280600081525090565b610a0a91905b80821115610a06576000808201600090556001820160009055600282016000905560038201600090556004820160006101000a81549060ff02191690556005820160006109dd9190610a32565b6006820160006109ed9190610a32565b6007820160006109fd9190610a32565b50600801610990565b5090565b90565b610a2f91905b80821115610a2b576000816000905550600101610a13565b5090565b90565b50805460018160011615610100020316600290046000825580601f10610a585750610a77565b601f016020900490600052602060002090810190610a769190610a0d565b5b50565b6000610a868235610fb2565b905092915050565b6000610a9a8235610fd2565b905092915050565b600082601f83011260008114610ab757610abc565b600080fd5b508135610ad0610acb82610f0c565b610ed6565b91508082526020830160208301858383011160018114610aef57610af4565b600080fd5b50610b00838284610fe8565b50505092915050565b6000610b158235610fde565b905092915050565b600060208284031260018114610b3257610b37565b600080fd5b506000610b4684828501610a7a565b91505092915050565b60008060008060008060c08789031260018114610b6b57610b70565b600080fd5b506000610b7f89828a01610b09565b965050602087013567ffffffffffffffff811160018114610b9f57610ba4565b600080fd5b50610bb189828a01610aa2565b955050604087013567ffffffffffffffff811160018114610bd157610bd6565b600080fd5b50610be389828a01610aa2565b945050606087013567ffffffffffffffff811160018114610c0357610c08565b600080fd5b50610c1589828a01610aa2565b9350506080610c2689828a01610b09565b92505060a0610c3789828a01610a8e565b9150509295509295509295565b60008060408385031260018114610c5a57610c5f565b600080fd5b506000610c6e85828601610b09565b9250506020610c7f85828601610b09565b9150509250929050565b610c9281610f7c565b82525050565b6000610ca382610f4e565b80845260208401935083602082028501610cbc85610f41565b60005b84811015610cf5578383038852610cd7838351610d81565b9250610ce282610f6f565b9150602088019750600181019050610cbf565b508196508694505050505092915050565b610d0f81610f9c565b82525050565b6000610d2082610f64565b808452610d34816020860160208601610ff7565b610d3d8161102a565b602085010191505092915050565b6000610d5682610f59565b808452610d6a816020860160208601610ff7565b610d738161102a565b602085010191505092915050565b600061010083016000830151610d9a6000860182610e3f565b506020830151610dad6020860182610e3f565b506040830151610dc06040860182610e3f565b506060830151610dd36060860182610e3f565b506080830151610de66080860182610d06565b5060a083015184820360a0860152610dfe8282610d4b565b91505060c083015184820360c0860152610e188282610d4b565b91505060e083015184820360e0860152610e328282610d4b565b9150508091505092915050565b610e4881610fa8565b82525050565b6000604082019050610e636000830185610c89565b610e706020830184610e3f565b9392505050565b60006020820190508181036000830152610e918184610c98565b905092915050565b6000602082019050610eae6000830184610d06565b92915050565b60006020820190508181036000830152610ece8184610d15565b905092915050565b6000604051905081810181811067ffffffffffffffff82111760018114610efc57610f01565b600080fd5b508060405250919050565b600067ffffffffffffffff821160018114610f2657610f2b565b600080fd5b50601f19601f8301169050602081019050919050565b6000602082019050919050565b600081519050919050565b600081519050919050565b600081519050919050565b6000602082019050919050565b600073ffffffffffffffffffffffffffffffffffffffff82169050919050565b60008115159050919050565b6000819050919050565b600073ffffffffffffffffffffffffffffffffffffffff82169050919050565b60008115159050919050565b6000819050919050565b82818337600083830152505050565b60005b83811015611015578082015181840152602081019050610ffa565b83811115611024576000848401525b50505050565b6000601f19601f83011690509190505600a265627a7a7230582043b88b148381deb67625dde68b34d3d9cf7970b9a9327ab93a7d885a548420b86c6578706572696d656e74616cf50037",
  "source": "pragma solidity ^0.4.0;\r\n// To return structs\r\npragma experimental ABIEncoderV2;\r\n\r\nimport \"./Mortal.sol\";\r\n\r\nlibrary SafeMath {\r\n    function mul(uint256 a, uint256 b) internal pure returns (uint256) {\r\n        if (a == 0) {\r\n            return 0;\r\n        }\r\n        uint256 c = a * b;\r\n        assert(c / a == b);\r\n        return c;\r\n    }\r\n\r\n    function div(uint256 a, uint256 b) internal pure returns (uint256) {\r\n        uint256 c = a / b;\r\n        return c;\r\n    }\r\n\r\n    function sub(uint256 a, uint256 b) internal pure returns (uint256) {\r\n        assert(b <= a);\r\n        return a - b;\r\n    }\r\n\r\n    function add(uint256 a, uint256 b) internal pure returns (uint256) {\r\n        uint256 c = a + b;\r\n        assert(c >= a);\r\n        return c;\r\n    }\r\n}\r\n\r\ncontract EthStarter is mortal{\r\n    \r\n    // Campaign\r\n    struct Campaign {\r\n        // NOTE: Those will stay here\r\n        uint id;\r\n        uint256 goalAmmount;\r\n        uint256 endDate;\r\n        uint256 creationDate;\r\n\r\n        //TODO: Move to another storage system\r\n        bool isPublished;\r\n        string title;\r\n        string website;\r\n        string description;\r\n    }\r\n\r\n    uint campaignCounter = 0;\r\n\r\n    // A regular map\r\n    mapping(address => Campaign[]) userCampaigns;\r\n    Campaign[] allCampaigns;\r\n\r\n    // Create an event when someone is added\r\n    event onCampaignCreated(address _creator, uint _campaignID);\r\n\r\n    function hasCampaigns(address _address) public view returns(bool) {\r\n        return userCampaigns[_address].length > 0;\r\n    }\r\n    \r\n    function createCampaign(uint _goalAmmount, string _title, string _website, string _description, uint256 _endDate, bool _isPublished) public {\r\n        Campaign memory campaign = Campaign(campaignCounter++, _goalAmmount, _endDate, block.timestamp, _isPublished, _title, _website, _description);     \r\n        userCampaigns[msg.sender].push(campaign);\r\n        allCampaigns.push(campaign);\r\n        onCampaignCreated(msg.sender, campaign.id);\r\n    }\r\n\r\n    function getCampaigns(uint256 _startIndex, uint256 _limit) public view returns (Campaign[]){\r\n        Campaign[] memory toReturn = new Campaign[](_limit);\r\n        if(_startIndex >= allCampaigns.length)\r\n            return toReturn;\r\n        \r\n        uint256 i = _startIndex;\r\n        uint256 end = _startIndex + _limit; \r\n        while(i < end && i < allCampaigns.length)\r\n            toReturn[i - _startIndex] = allCampaigns[i++];\r\n        \r\n        return toReturn;   \r\n    }\r\n\r\n    function getTestString() public pure returns(string){\r\n        return \"Merengue Merengue\";\r\n    }\r\n\r\n    // Like that we can send ether to the contract\r\n    function() payable public{\r\n        \r\n    }\r\n\r\n       \r\n}",
  "sourcePath": "C:\\Users\\cmuri\\Desktop\\Ethstarter\\contracts\\contracts\\EthStarter.sol",
  "compiler": {
    "name": "solc",
    "version": "0.4.19+commit.c4cbbb05.Emscripten.clang"
  },
  "schemaVersion": "2.0.0",
  "updatedAt": "2018-05-10T23:12:42.543Z"
}