{
  "contractName": "EthStarter",
  "abi": [
    {
      "constant": true,
      "inputs": [
        {
          "name": "_index",
          "type": "uint256"
        }
      ],
      "name": "getCampaignDescription",
      "outputs": [
        {
          "name": "",
          "type": "string"
        }
      ],
      "payable": false,
      "stateMutability": "view",
      "type": "function"
    },
    {
      "constant": true,
      "inputs": [
        {
          "name": "_index",
          "type": "uint256"
        }
      ],
      "name": "getCampaignCreationDate",
      "outputs": [
        {
          "name": "",
          "type": "uint256"
        }
      ],
      "payable": false,
      "stateMutability": "view",
      "type": "function"
    },
    {
      "constant": true,
      "inputs": [
        {
          "name": "_index",
          "type": "uint256"
        }
      ],
      "name": "getRaised",
      "outputs": [
        {
          "name": "",
          "type": "uint256"
        }
      ],
      "payable": false,
      "stateMutability": "view",
      "type": "function"
    },
    {
      "constant": false,
      "inputs": [],
      "name": "kill",
      "outputs": [],
      "payable": false,
      "stateMutability": "nonpayable",
      "type": "function"
    },
    {
      "constant": true,
      "inputs": [
        {
          "name": "_index",
          "type": "uint256"
        }
      ],
      "name": "getCampaignID",
      "outputs": [
        {
          "name": "",
          "type": "uint256"
        }
      ],
      "payable": false,
      "stateMutability": "view",
      "type": "function"
    },
    {
      "constant": true,
      "inputs": [
        {
          "name": "_index",
          "type": "uint256"
        }
      ],
      "name": "getCampaingGoalAmmount",
      "outputs": [
        {
          "name": "",
          "type": "uint256"
        }
      ],
      "payable": false,
      "stateMutability": "view",
      "type": "function"
    },
    {
      "constant": true,
      "inputs": [],
      "name": "owner",
      "outputs": [
        {
          "name": "",
          "type": "address"
        }
      ],
      "payable": false,
      "stateMutability": "view",
      "type": "function"
    },
    {
      "constant": true,
      "inputs": [
        {
          "name": "_id",
          "type": "uint256"
        }
      ],
      "name": "getCampaignIndexByID",
      "outputs": [
        {
          "name": "",
          "type": "uint256"
        }
      ],
      "payable": false,
      "stateMutability": "view",
      "type": "function"
    },
    {
      "constant": false,
      "inputs": [
        {
          "name": "_goalAmmount",
          "type": "uint256"
        },
        {
          "name": "_title",
          "type": "string"
        },
        {
          "name": "_website",
          "type": "string"
        },
        {
          "name": "_description",
          "type": "string"
        },
        {
          "name": "_endDate",
          "type": "uint256"
        },
        {
          "name": "_isPublished",
          "type": "bool"
        }
      ],
      "name": "createCampaign",
      "outputs": [],
      "payable": false,
      "stateMutability": "nonpayable",
      "type": "function"
    },
    {
      "constant": true,
      "inputs": [],
      "name": "getNumCampaigns",
      "outputs": [
        {
          "name": "",
          "type": "uint256"
        }
      ],
      "payable": false,
      "stateMutability": "view",
      "type": "function"
    },
    {
      "constant": true,
      "inputs": [
        {
          "name": "_index",
          "type": "uint256"
        }
      ],
      "name": "getCampaignTitle",
      "outputs": [
        {
          "name": "",
          "type": "string"
        }
      ],
      "payable": false,
      "stateMutability": "view",
      "type": "function"
    },
    {
      "constant": true,
      "inputs": [
        {
          "name": "_index",
          "type": "uint256"
        }
      ],
      "name": "getCampaignWebsite",
      "outputs": [
        {
          "name": "",
          "type": "string"
        }
      ],
      "payable": false,
      "stateMutability": "view",
      "type": "function"
    },
    {
      "constant": true,
      "inputs": [
        {
          "name": "_index",
          "type": "uint256"
        }
      ],
      "name": "getCampaignIsPublished",
      "outputs": [
        {
          "name": "",
          "type": "bool"
        }
      ],
      "payable": false,
      "stateMutability": "view",
      "type": "function"
    },
    {
      "constant": false,
      "inputs": [
        {
          "name": "_campaignID",
          "type": "uint256"
        }
      ],
      "name": "donate",
      "outputs": [],
      "payable": true,
      "stateMutability": "payable",
      "type": "function"
    },
    {
      "constant": true,
      "inputs": [
        {
          "name": "_index",
          "type": "uint256"
        }
      ],
      "name": "getCampaignEndDate",
      "outputs": [
        {
          "name": "",
          "type": "uint256"
        }
      ],
      "payable": false,
      "stateMutability": "view",
      "type": "function"
    },
    {
      "anonymous": false,
      "inputs": [
        {
          "indexed": false,
          "name": "_creator",
          "type": "address"
        },
        {
          "indexed": false,
          "name": "_campaignID",
          "type": "uint256"
        }
      ],
      "name": "onCampaignCreated",
      "type": "event"
    },
    {
      "anonymous": false,
      "inputs": [
        {
          "indexed": false,
          "name": "_campaignTitle",
          "type": "string"
        },
        {
          "indexed": false,
          "name": "_ammount",
          "type": "uint256"
        }
      ],
      "name": "onDonationReceived",
      "type": "event"
    },
    {
      "anonymous": false,
      "inputs": [
        {
          "indexed": true,
          "name": "previousOwner",
          "type": "address"
        },
        {
          "indexed": true,
          "name": "newOwner",
          "type": "address"
        }
      ],
      "name": "OwnershipTransferred",
      "type": "event"
    },
    {
      "constant": false,
      "inputs": [
        {
          "name": "newOwner",
          "type": "address"
        }
      ],
      "name": "transferOwnership",
      "outputs": [],
      "payable": false,
      "stateMutability": "nonpayable",
      "type": "function"
    }
  ],
  "bytecode": "0x60606040526001600255341561001457600080fd5b6114a5806100236000396000f3006060604052600436106100e6576000357c0100000000000000000000000000000000000000000000000000000000900463ffffffff168063068782d2146100eb5780632001ce561461018757806323b53ba6146101be57806341c0e1b5146101f55780635e9660491461020a5780638820d156146102415780638da5cb5b146102785780638dec1c53146102cd57806395dc264214610304578063d9a9bb3e14610404578063d9d0635b1461042d578063e97bf06c146104c9578063ed7d614314610565578063f14faf6f146105a0578063f2fde38b146105b8578063fb99932f146105f1575b600080fd5b34156100f657600080fd5b61010c6004808035906020019091905050610628565b6040518080602001828103825283818151815260200191508051906020019080838360005b8381101561014c578082015181840152602081019050610131565b50505050905090810190601f1680156101795780820380516001836020036101000a031916815260200191505b509250505060405180910390f35b341561019257600080fd5b6101a860048080359060200190919050506106f0565b6040518082815260200191505060405180910390f35b34156101c957600080fd5b6101df600480803590602001909190505061071a565b6040518082815260200191505060405180910390f35b341561020057600080fd5b610208610744565b005b341561021557600080fd5b61022b60048080359060200190919050506107d5565b6040518082815260200191505060405180910390f35b341561024c57600080fd5b61026260048080359060200190919050506107ff565b6040518082815260200191505060405180910390f35b341561028357600080fd5b61028b610829565b604051808273ffffffffffffffffffffffffffffffffffffffff1673ffffffffffffffffffffffffffffffffffffffff16815260200191505060405180910390f35b34156102d857600080fd5b6102ee600480803590602001909190505061084e565b6040518082815260200191505060405180910390f35b341561030f57600080fd5b610402600480803590602001909190803590602001908201803590602001908080601f0160208091040260200160405190810160405280939291908181526020018383808284378201915050505050509190803590602001908201803590602001908080601f0160208091040260200160405190810160405280939291908181526020018383808284378201915050505050509190803590602001908201803590602001908080601f016020809104026020016040519081016040528093929190818152602001838380828437820191505050505050919080359060200190919080351515906020019091905050610afb565b005b341561040f57600080fd5b610417610dbc565b6040518082815260200191505060405180910390f35b341561043857600080fd5b61044e6004808035906020019091905050610dc9565b6040518080602001828103825283818151815260200191508051906020019080838360005b8381101561048e578082015181840152602081019050610473565b50505050905090810190601f1680156104bb5780820380516001836020036101000a031916815260200191505b509250505060405180910390f35b34156104d457600080fd5b6104ea6004808035906020019091905050610e91565b6040518080602001828103825283818151815260200191508051906020019080838360005b8381101561052a57808201518184015260208101905061050f565b50505050905090810190601f1680156105575780820380516001836020036101000a031916815260200191505b509250505060405180910390f35b341561057057600080fd5b6105866004808035906020019091905050610f59565b604051808215151515815260200191505060405180910390f35b6105b66004808035906020019091905050610f90565b005b34156105c357600080fd5b6105ef600480803573ffffffffffffffffffffffffffffffffffffffff169060200190919050506110a9565b005b34156105fc57600080fd5b61061260048080359060200190919050506111fe565b6040518082815260200191505060405180910390f35b610630611246565b60038281548110151561063f57fe5b90600052602060002090600902016007018054600181600116156101000203166002900480601f0160208091040260200160405190810160405280929190818152602001828054600181600116156101000203166002900480156106e45780601f106106b9576101008083540402835291602001916106e4565b820191906000526020600020905b8154815290600101906020018083116106c757829003601f168201915b50505050509050919050565b600060038281548110151561070157fe5b9060005260206000209060090201600301549050919050565b600060038281548110151561072b57fe5b9060005260206000209060090201600801549050919050565b6000809054906101000a900473ffffffffffffffffffffffffffffffffffffffff1673ffffffffffffffffffffffffffffffffffffffff163373ffffffffffffffffffffffffffffffffffffffff1614156107d3576000809054906101000a900473ffffffffffffffffffffffffffffffffffffffff1673ffffffffffffffffffffffffffffffffffffffff16ff5b565b60006003828154811015156107e657fe5b9060005260206000209060090201600001549050919050565b600060038281548110151561081057fe5b9060005260206000209060090201600101549050919050565b6000809054906101000a900473ffffffffffffffffffffffffffffffffffffffff1681565b600061085861125a565b6000806003805490509150600090505b81811015610aee5760038181548110151561087f57fe5b90600052602060002090600902016101206040519081016040529081600082015481526020016001820154815260200160028201548152602001600382015481526020016004820160009054906101000a900460ff16151515158152602001600582018054600181600116156101000203166002900480601f0160208091040260200160405190810160405280929190818152602001828054600181600116156101000203166002900480156109765780601f1061094b57610100808354040283529160200191610976565b820191906000526020600020905b81548152906001019060200180831161095957829003601f168201915b50505050508152602001600682018054600181600116156101000203166002900480601f016020809104026020016040519081016040528092919081815260200182805460018160011615610100020316600290048015610a185780601f106109ed57610100808354040283529160200191610a18565b820191906000526020600020905b8154815290600101906020018083116109fb57829003601f168201915b50505050508152602001600782018054600181600116156101000203166002900480601f016020809104026020016040519081016040528092919081815260200182805460018160011615610100020316600290048015610aba5780601f10610a8f57610100808354040283529160200191610aba565b820191906000526020600020905b815481529060010190602001808311610a9d57829003601f168201915b5050505050815260200160088201548152505092508483600001511415610ae357809350610af3565b806001019050610868565b600080fd5b505050919050565b610b0361125a565b6101206040519081016040528060026000815480929190600101919050558152602001888152602001848152602001428152602001831515815260200187815260200186815260200185815260200160008152509050600160003373ffffffffffffffffffffffffffffffffffffffff1673ffffffffffffffffffffffffffffffffffffffff1681526020019081526020016000208054806001018281610baa91906112bb565b916000526020600020906009020160008390919091506000820151816000015560208201518160010155604082015181600201556060820151816003015560808201518160040160006101000a81548160ff02191690831515021790555060a0820151816005019080519060200190610c249291906112ed565b5060c0820151816006019080519060200190610c419291906112ed565b5060e0820151816007019080519060200190610c5e9291906112ed565b50610100820151816008015550505060038054806001018281610c8191906112bb565b916000526020600020906009020160008390919091506000820151816000015560208201518160010155604082015181600201556060820151816003015560808201518160040160006101000a81548160ff02191690831515021790555060a0820151816005019080519060200190610cfb9291906112ed565b5060c0820151816006019080519060200190610d189291906112ed565b5060e0820151816007019080519060200190610d359291906112ed565b5061010082015181600801555050507f2257ff5a67b8808dcc0ed4dffa1e4e4198a61916cd0c04bd225c03d0fb479860338260000151604051808373ffffffffffffffffffffffffffffffffffffffff1673ffffffffffffffffffffffffffffffffffffffff1681526020018281526020019250505060405180910390a150505050505050565b6000600380549050905090565b610dd1611246565b600382815481101515610de057fe5b90600052602060002090600902016005018054600181600116156101000203166002900480601f016020809104026020016040519081016040528092919081815260200182805460018160011615610100020316600290048015610e855780601f10610e5a57610100808354040283529160200191610e85565b820191906000526020600020905b815481529060010190602001808311610e6857829003601f168201915b50505050509050919050565b610e99611246565b600382815481101515610ea857fe5b90600052602060002090600902016006018054600181600116156101000203166002900480601f016020809104026020016040519081016040528092919081815260200182805460018160011615610100020316600290048015610f4d5780601f10610f2257610100808354040283529160200191610f4d565b820191906000526020600020905b815481529060010190602001808311610f3057829003601f168201915b50505050509050919050565b6000600382815481101515610f6a57fe5b906000526020600020906009020160040160009054906101000a900460ff169050919050565b6000803411156110a5576003610fa58361084e565b815481101515610fb157fe5b90600052602060002090600902019050610fd834826008015461122890919063ffffffff16565b81600801819055507f77ec2acacb7e7cc3e32532ac22fdb2eb13416f16af8724f72e4d8425f598f17a816005013460405180806020018381526020018281038252848181546001816001161561010002031660029004815260200191508054600181600116156101000203166002900480156110955780601f1061106a57610100808354040283529160200191611095565b820191906000526020600020905b81548152906001019060200180831161107857829003601f168201915b5050935050505060405180910390a15b5050565b6000809054906101000a900473ffffffffffffffffffffffffffffffffffffffff1673ffffffffffffffffffffffffffffffffffffffff163373ffffffffffffffffffffffffffffffffffffffff1614151561110457600080fd5b600073ffffffffffffffffffffffffffffffffffffffff168173ffffffffffffffffffffffffffffffffffffffff161415151561114057600080fd5b8073ffffffffffffffffffffffffffffffffffffffff166000809054906101000a900473ffffffffffffffffffffffffffffffffffffffff1673ffffffffffffffffffffffffffffffffffffffff167f8be0079c531659141344cd1fd0a4f28419497f9722a3daafe3b4186f6b6457e060405160405180910390a3806000806101000a81548173ffffffffffffffffffffffffffffffffffffffff021916908373ffffffffffffffffffffffffffffffffffffffff16021790555050565b600060038281548110151561120f57fe5b9060005260206000209060090201600201549050919050565b600080828401905083811015151561123c57fe5b8091505092915050565b602060405190810160405280600081525090565b610120604051908101604052806000815260200160008152602001600081526020016000815260200160001515815260200161129461136d565b81526020016112a161136d565b81526020016112ae61136d565b8152602001600081525090565b8154818355818115116112e8576009028160090283600052602060002091820191016112e79190611381565b5b505050565b828054600181600116156101000203166002900490600052602060002090601f016020900481019282601f1061132e57805160ff191683800117855561135c565b8280016001018555821561135c579182015b8281111561135b578251825591602001919060010190611340565b5b509050611369919061140c565b5090565b602060405190810160405280600081525090565b61140991905b80821115611405576000808201600090556001820160009055600282016000905560038201600090556004820160006101000a81549060ff02191690556005820160006113d49190611431565b6006820160006113e49190611431565b6007820160006113f49190611431565b600882016000905550600901611387565b5090565b90565b61142e91905b8082111561142a576000816000905550600101611412565b5090565b90565b50805460018160011615610100020316600290046000825580601f106114575750611476565b601f016020900490600052602060002090810190611475919061140c565b5b505600a165627a7a72305820e3febace551f641a541df22247c5b6a49b8a86282a8b01a1de55de24233dc1f10029",
  "source": "pragma solidity ^0.4.0;\r\n\r\n///////////////////////////////////////////////////////////////////////////////////\r\n//                                   OWNED                                       //\r\n///////////////////////////////////////////////////////////////////////////////////\r\ncontract owned {\r\n    address public owner;\r\n\r\n    event OwnershipTransferred(address indexed previousOwner, address indexed newOwner);\r\n\r\n    function Ownable() internal {\r\n        owner = msg.sender;\r\n    }\r\n\r\n    modifier onlyOwner() {\r\n        require(msg.sender == owner);\r\n        _;\r\n    }\r\n\r\n    function transferOwnership(address newOwner) public onlyOwner {\r\n        require(newOwner != address(0));\r\n        OwnershipTransferred(owner, newOwner);\r\n        owner = newOwner;\r\n    }\r\n}\r\n\r\n\r\n///////////////////////////////////////////////////////////////////////////////////\r\n//                                 MORTAL                                        //\r\n///////////////////////////////////////////////////////////////////////////////////\r\n\r\ncontract mortal is owned {\r\n    function kill() public {\r\n        if (msg.sender == owner)\r\n            selfdestruct(owner);\r\n    }\r\n}\r\n\r\n///////////////////////////////////////////////////////////////////////////////////\r\n//                                SAFE MATH                                      //\r\n///////////////////////////////////////////////////////////////////////////////////\r\nlibrary SafeMath {\r\n    function mul(uint256 a, uint256 b) internal pure returns (uint256) {\r\n        if (a == 0) {\r\n            return 0;\r\n        }\r\n        uint256 c = a * b;\r\n        assert(c / a == b);\r\n        return c;\r\n    }\r\n\r\n    function div(uint256 a, uint256 b) internal pure returns (uint256) {\r\n        uint256 c = a / b;\r\n        return c;\r\n    }\r\n\r\n    function sub(uint256 a, uint256 b) internal pure returns (uint256) {\r\n        assert(b <= a);\r\n        return a - b;\r\n    }\r\n\r\n    function add(uint256 a, uint256 b) internal pure returns (uint256) {\r\n        uint256 c = a + b;\r\n        assert(c >= a);\r\n        return c;\r\n    }\r\n}\r\n\r\n///////////////////////////////////////////////////////////////////////////////////\r\n//                               ETH STARTER                                     //\r\n///////////////////////////////////////////////////////////////////////////////////\r\ncontract EthStarter is mortal{\r\n    \r\n    using SafeMath for uint256;\r\n        \r\n    // Campaign\r\n    struct Campaign {\r\n        // NOTE: Those will stay here\r\n        uint id;\r\n        uint256 goalAmmount;\r\n        uint256 endDate;\r\n        uint256 creationDate;\r\n\r\n        //TODO: Move to another storage system\r\n        bool isPublished;\r\n        string title;\r\n        string website;\r\n        string description;\r\n\r\n        uint256 raised;\r\n    }\r\n\r\n    mapping(address => Campaign[]) userCampaigns;\r\n    \r\n    uint constant CAMPAIGN_NOT_FOUND = 0;\r\n    uint campaignCounter = 1;\r\n    Campaign[] allCampaigns;\r\n\r\n    // Create an event when someone is added\r\n    event onCampaignCreated(address _creator, uint _campaignID);\r\n    event onDonationReceived(string _campaignTitle, uint256 _ammount);\r\n    \r\n    function createCampaign(uint _goalAmmount, string _title, string _website, string _description, uint256 _endDate, bool _isPublished) public {\r\n        Campaign memory campaign = Campaign(campaignCounter++, _goalAmmount, _endDate, block.timestamp, _isPublished, _title, _website, _description, 0);     \r\n        userCampaigns[msg.sender].push(campaign);\r\n        allCampaigns.push(campaign);\r\n        onCampaignCreated(msg.sender, campaign.id);\r\n    }\r\n\r\n\r\n    \r\n    function getNumCampaigns() public view returns(uint){\r\n        return allCampaigns.length;\r\n    }\r\n    \r\n    function getCampaignTitle(uint _index) public view returns(string){\r\n        return allCampaigns[_index].title;\r\n    }\r\n    \r\n    function getCampaingGoalAmmount(uint _index) public view returns(uint256){\r\n        return allCampaigns[_index].goalAmmount;\r\n    }\r\n    \r\n    function getCampaignID(uint _index) public view returns(uint){\r\n        return allCampaigns[_index].id;\r\n    }\r\n    \r\n    function getCampaignEndDate(uint _index) public view returns(uint256){\r\n        return allCampaigns[_index].endDate;\r\n    }\r\n    \r\n    function getCampaignCreationDate(uint _index) public view returns(uint256){\r\n        return allCampaigns[_index].creationDate;\r\n    }\r\n    \r\n    function getCampaignIsPublished(uint _index) public view returns(bool){\r\n        return allCampaigns[_index].isPublished;\r\n    }\r\n    \r\n    function getCampaignWebsite(uint _index) public view returns(string){\r\n        return allCampaigns[_index].website;\r\n    }\r\n    \r\n    function getCampaignDescription(uint _index) public view returns(string){\r\n        return allCampaigns[_index].description;\r\n    }\r\n\r\n    function getRaised(uint _index) public view returns(uint256){\r\n        return allCampaigns[_index].raised;\r\n    }\r\n\r\n    function getCampaignIndexByID(uint _id) public view returns(uint){\r\n        Campaign memory c;\r\n        uint numCampaigns = allCampaigns.length;\r\n        for(uint i = 0; i < numCampaigns; ++i){\r\n            c = allCampaigns[i];\r\n            if(c.id == _id){\r\n                return i;\r\n            }\r\n        }\r\n        revert();\r\n    }\r\n\r\n    function donate(uint _campaignID) payable public{\r\n        if(msg.value > 0){\r\n            Campaign storage c = allCampaigns[getCampaignIndexByID(_campaignID)];\r\n            c.raised = c.raised.add(msg.value);\r\n            onDonationReceived(c.title, msg.value);\r\n        }\r\n    }\r\n}",
  "sourcePath": "C:\\Users\\cmuri\\Desktop\\Ethstarter\\contracts\\contracts\\EthStarter.sol",
  "compiler": {
    "name": "solc",
    "version": "0.4.19+commit.c4cbbb05.Emscripten.clang"
  },
  "schemaVersion": "2.0.0",
  "updatedAt": "2018-05-13T22:14:56.540Z"
}